:1000000080312D28080001347E14803120007F08C3
:10001000F2008B1A0B1D10288F312B2780312828D6
:100020000B1A8B1C17288E319B26803128288B19A0
:100030000B1C1E288E319A26803128280B1F282859
:100040002100921C28282000921C28288F311E276E
:1000500072082000FF007E10090080312F288031B7
:1000600003208031FA00F230840086308500A03011
:1000700086000030870027308E31EA268031F80173
:10008000F901D7308400003085000F308E31E4262E
:100090008031203084000130850021308E31E4260B
:1000A0007E1020008231FE2A2100E900F301F401D4
:1000B00000308F317327803186297803031D9D28F6
:1000C00001302100D5070030D63D2208FF3EE60072
:1000D000FF30233DE7006708803AE8005608803A81
:1000E0006802031D7528550866020318822821003E
:1000F0002208FF3ED500FF30233DD6008531422542
:100100008031852887316327803121005535A53E10
:1001100086008701403F2000B900413FBA00863188
:100120007026803120003808BC003708BB008131C0
:10013000D42180318331DA23803102307806031DE7
:10014000D62801302100D3070030D43D2008FF3EDF
:10015000E600FF30213DE7006708803AE8005408D8
:10016000803A6802031DB628530866020318C328A4
:1001700021002008FF3ED300FF30213DD40085310F
:1001800042258031C62887316327803121005335CD
:10019000BB3E86008701403F2000B700413FB800CA
:1001A00084313F2480318331DA2380317808031D84
:1001B000DC2885314225803103307806031DB429BF
:1001C000853142258031B4297803031D0F29FF3082
:1001D0002100D507FF30D63DD61FF428D501D60122
:1001E000853142258031F7288F31C32780312100A6
:1001F0005535A53E86008701403F2000B900413FAC
:10020000BA0086317026803120003808BC003708DB
:10021000BB008131D42180318331DA238031023037
:100220007806031D3329FF302100D307FF30D43D6A
:10023000D41F2029D301D4018531422580312329BF
:100240008F31C327803121005335BB3E86008701A3
:10025000403F2000B700413FB80084313F24803147
:100260008331DA2380317808031D3929853142250D
:10027000803103307806031DB42985314225803151
:10028000B4298631CA268031B429873119278031B3
:10029000B4292100DD01FF30E6006608DC00DB0147
:1002A0004F30F5008830F6008F31A6278031B42911
:1002B0002100D301D4015335BB3E86008701403F66
:1002C0002000B700413FB80084313F24803187319E
:1002D0003F278031B4292100D501D6015535A53EEF
:1002E00086008701403F2000B900413FBA008631B7
:1002F0007026803120003808BC003708BB008131EF
:10030000D421803187313F278031B4292100690809
:10031000033E860087010108083A03194929183A63
:1003200003194529083A0319B429303A0319B429A5
:10033000603A03196B29183A03194129083A03193D
:10034000B429303A0319B429E03A03195829103A6C
:100350000319B429383A03195D28083A0319B42956
:10036000183A0319E428B42921005C08E60066085D
:10037000F3005B08E7006708F4005D088F3173271E
:10038000803106302100E7001330E600AD30890BE4
:10039000C729E60BC729E70BC7290032F301F4018F
:1003A00000308F317327080000302000AB00003090
:1003B000AA000330A900E830A800F430BD000130E5
:1003C000BE000030BF000030C0003908A0003A086D
:1003D000A100890D893B8909A200A3000030A70074
:1003E0000030A6001230A5005C30A4008631402603
:1003F000813120002008BD072108BE3D2208BF3DF5
:100400002308C03D4008AF003F08AE003E08AD00E5
:100410003D08AC0082317C22813120002809C100D6
:100420002909C200C10A0319C20A3B084107C500D5
:100430003C08423DC6003B08A8003C08A900890DC5
:10044000893B8909AA00AB000230F3000030F400B8
:100450003C08F6003B08F50084319F248131730885
:100460002000BD007408BE000030BE1BFF30BF007E
:10047000C0004508C1004608C2000030C21BFF3062
:10048000C300C4000830C135C20DC30DC40D890BB3
:10049000432A4108BD074208BE3D4308BF3D44080A
:1004A000C03D4008AF003F08AE003E08AD003D082B
:1004B000AC0082317C22813120002908C800280844
:1004C000C7004808803ABD0081303D02031D6A2AFA
:1004D00000304702031C712AFF302000C7000030A3
:1004E000C8002000C81F762AC701C8014708BD0000
:1004F0003D082100DE0008002000B201AB1F8D2A5C
:10050000A809A909AA09AB09A80A0319A90A031984
:10051000AA0A0319AB0AB201B20AAF1F9E2AAC099C
:10052000AD09AE09AF09AC0A0319AD0A0319AE0A49
:100530000319AF0A0130B0003008B2060030B6002F
:100540000030B5000030B4000030B3002B082A049E
:10055000290428040319E72AB101B10AAB1BBC2AFC
:100560000130A835A90DAA0DAB0D890BB12A0130B8
:10057000B0003008B107AE2A0130B335B40DB50D67
:10058000B60D890BBD2A2B082F02031DD12A2A087C
:100590002E02031DD12A29082D02031DD12A280865
:1005A0002C02031CDC2A2808AC022908AD3B2A08CF
:1005B000AE3B2B08AF3B33140130AB36AA0CA90C71
:1005C000A80C890BDD2A0130B102031DBC2A3208B8
:1005D0000319F52AB309B409B509B609B30A031911
:1005E000B40A0319B50A0319B60A3608AB00350870
:1005F000AA003408A9003308A8000800873186271C
:1006000082318E31BA2682318E319F2682318E31EF
:10061000A326823185318F2582318731C8278231E7
:1006200021005535A53E86008701403F2000B900D6
:10063000413FBA0086317026823120003808BC0064
:100640003708BB008131D421823121005335BB3EB4
:1006500086008701403F2000B700413FB800843149
:100660003F2482318B170B178531D3258231863198
:1006700070268231200038082100EC002000370865
:100680002100EB006C08803AEA0089306A02031D01
:100690004B2BC4306B020318502B86319E268231BF
:1006A00021005535A53E86008701403F2000B90056
:1006B000413FBA0021006C082000BC0021006B08FB
:1006C0002000BB008131D42182310230210061063B
:1006D000031D372BE0308031542082312100E101AD
:1006E000372BE03020002005A6000F302105A700A1
:1006F00000308B1B0130A80027082106031D822B28
:1007000026082006031D08008B132108F40020088A
:10071000F3008F318A2783312300151315159516A1
:100720002000A901203029020318D12B2008230022
:100730009100200021082300920020002935220783
:10074000A3002308860087010108230093002000EE
:1007500029352207A300230886008701403FA40013
:10076000413FA5002508230094001F3020002906E2
:10077000031DBC2B23009512553023009600AA3090
:10078000960095140000000001302000A007003002
:10079000A13D0130A3002308A90720302902031C32
:1007A000962B230015112000280C031C8B13031813
:1007B0008B1708002000EE0120306E020318EA2B90
:1007C000AE01AF010130AA002A08EE0720306E0208
:1007D000031CE02BEF01FF30210055052000AA008B
:1007E0000030210056052000AB0000302A04AC0088
:1007F00034302B04AD006F352E3E860087012C0867
:10080000C03F2D08C13F0130AA002A08EF07FF3082
:10081000210053052000AA000030210054052000CB
:10082000AB0000302A04AC0034302B04AD006F352F
:100830002E3E860087012C08C03F2D08C13F0130A5
:10084000AA002A08EF0700307A04AA003430AB006F
:100850006F352E3E860087012A08C03F2B08C13F16
:100860000130AA002A08EF07E030A0000F30A100F5
:100870002E30AA002A08A20083317123080020002C
:100880003708A0003808A100890D893B8909A2001A
:10089000A3000030A7000030A6000030A5006030A3
:1008A000A40086314026843120002308AB002208B2
:1008B000AA002108A9002008A8000030AF000F30CE
:1008C000AE004230AD004030AC0082317C22843139
:1008D00020002908BB002808BA003B08803AB9006C
:1008E00081303902031D762C00303A02031C7D2C26
:1008F000FF302000BA000030BB0020003B08803AE7
:10090000B90080303902031D872C44303A020318A5
:100910008E2C44302000BA000030BB008B13200026
:100920003A088E31B5268431200037083804031D7B
:100930009C2CFA01FA0A9D2CFA018B170800200062
:10094000A101F41FAA2CF309F409F30A0319F40A0C
:10095000A101A10AF61FB52CF509F609F50A03193C
:10096000F60A0130F7007708A106A201A301730877
:1009700074040319E42CA001A00AF41BC92C013053
:10098000F335F40D890BC02C0130F7007708A00770
:10099000BD2C0130A235A30D890BCA2C7408760238
:1009A000031DD42C73087502031CDB2C7308F5029D
:1009B0007408F63B22140130F436F30C890BDC2C5E
:1009C0000130A002031DC92C21080319EC2CA20937
:1009D000A309A20A0319A30A2308F4002208F300BA
:1009E000080020001508F0007008F10095010B19AF
:1009F000F1010B11342DB4307102031C402DF43081
:100A000071020318402D2100E001E101E10A402DAF
:100A10000130E235E30DE40DE50D890B092D1D30A4
:100A20007102031C192D2A3071020318192D62144A
:100A3000212D0E307102031C322D15307102031866
:100A4000322D0130F0007008E00720306006031DF1
:100A5000402D62096306031D322D0230F00070083C
:100A6000E100402DE101402D21006108003A031909
:100A7000FB2C013A0319082D033A0319402D322D9E
:100A80008B100800F301F401FF308F31732785319B
:100A900003302000A1008A30A0005530890B4E2D74
:100AA000A00B4E2DA10B4E2D0032F301F4010030AE
:100AB0008F317327853103302000A1008A30A000D8
:100AC0005530890B612DA00B612DA10B612D0032DA
:100AD000F301F401FF308F3173278531033020009B
:100AE000A1008A30A0005530890B742DA00B742D05
:100AF000A10B742D0032F301F40100308F31732704
:100B0000853103302000A1008A30A0005530890BC8
:100B1000872DA00B872DA10B872D00320800FF30F9
:100B200020009B001C08FC3902389C001C15210089
:100B30000E160E303D00A400CF3025009E052C007F
:100B400098013F3097051916EF30F3007308210024
:100B50008E052C00991721008C160F303D00950052
:100B60003F3025009E052C009B013F309A051C1646
:100B7000DF30F300730821008C052C009C17210046
:100B80008E160C303D00A50025001308F0390C38F6
:100B90009300FF30910030309304DF30F30073088E
:100BA00021008E050800F8012000A201A3012308FE
:100BB000803AA00080302002031DE02D0530220283
:100BC00003180800B4302000A0002008F300E6302D
:100BD000A1002108F40000308F3173278531823065
:100BE0002000A000DD30890BF32DA00BF32D003287
:100BF000F301F40100308F317327853182302000FA
:100C0000A000DD30890B022EA00B022E0032013035
:100C10002000A2070030A33DD72D22008C018D01BA
:100C20008E01043021008C0030308D0050308E0059
:100C3000403023008E0010308D008C0124008D0187
:100C40008C018E012100951325008C018D018E01F0
:100C5000373026008C00F0308D00FF308E003F30A2
:100C600027008C00F0308D00FF308E008B15023095
:100C70003C0090000D30A40014303D009F0008009F
:100C80000030F6000030F5000030F4000030F300D2
:100C90002000201C532E2408F3072508F43D2608C5
:100CA000F53D2708F63D0130A435A50DA60DA70D8D
:100CB000890B542E0130A336A20CA10CA00C890B79
:100CC0005B2E2308220421042004031D482E7608ED
:100CD000A3007508A2007408A1007308A000080012
:100CE0008130220097007D3021009D0090309E00D1
:100CF0002200171F782E00000000000000000000F6
:100D000021009D149D18822E1D101B082000A80094
:100D100021001C082000A900AA01AB010030AF008F
:100D20000F30AE00FC30AD000030AC0082317C22D0
:100D300020002908B8002808B70008000330200068
:100D4000A0002008F800F301F401FF308F31732771
:100D5000863102302000A1004530A000A930890B67
:100D6000AF2EA00BAF2EA10BAF2E0032F301F4017A
:100D700000308F317327863103302000A1008A3084
:100D8000A0005530890BC22EA00BC22EA10BC22E83
:100D90000032080002302000A5002508F800F30109
:100DA000FF30A5002508F400FF308F31732786310E
:100DB00006302000A6001330A500AD30890BDE2ED2
:100DC000A50BDE2EA60BDE2E0032F301F40100305F
:100DD0008F3173278631FF30F5008730F6008F3171
:100DE000A6270800063400340B34003401340034E4
:100DF00000341E34003432340034463400345A3463
:100E000000346E34003482340034A0340034BE34F4
:100E10000034DC340034FA3400340034003432342A
:100E200000346434003478340034823400348C3438
:100E30000034F801F80AF301FF302000A50025086E
:100E4000F40000308F317327873106302000A60070
:100E50001330A500AD30890B2B2FA50B2B2FA60B24
:100E60002B2F0032F301F40100308F3173278731CB
:100E70003C30F5008830F6008F31A6270800FF309F
:100E80002000A5002508F300F401C0308F3173273E
:100E9000873103302000A6008A30A5005530890B29
:100EA0004F2FA50B4F2FA60B4F2F0032F301F4014C
:100EB00000308F3173278731E830F5008730F60036
:100EC0008F31A627080032302000A5002508F30046
:100ED000FF30A6002608F40000308F3173278731D9
:100EE00082302000A500DD30890B742FA50B742FF4
:100EF0000032F301F40100308F317327873128303D
:100F0000F5008830F6008F31A627080086310D26BF
:100F100087318E31F02687318E31A72687318E3189
:100F2000BA2687318E319F2687318F314B27873103
:100F30008E31A32687318E31F82687318F311327E2
:100F400087318F313A2787318731A727080008304A
:100F500023009F0090309D0024309E0008309B00AD
:100F60009C010030F3000030F4008E31C62687313A
:100F70000030F3000030F4008E31CC268731003091
:100F8000F3000030F4008E31C0262100DF0108009C
:100F9000E03084008F3085000008F300F40173080E
:100FA0002100D5007408D600E13084008F30850020
:100FB0000008F300F4017308D3007408D400E23091
:100FC00084008F3085000008F3007308FA000800E1
:100FD0000A34203472346534733465347434203404
:100FE000763461346C34753465342034733465344C
:100FF0006C346534633474346534643400340A34D6
:1010000020344634723465347134753465346E344A
:10101000633479342034733465346C346534633428
:1010200074346534643400340A34203464346534F0
:10103000633472346534613473346534203473340A
:1010400065346C346534633474346534643400342A
:101050000A34203469346E34633472346534613454
:10106000733465342034733465346C3465346334DC
:1010700074346534643400340A3420346334753491
:101080007234723465346E3474342034733465349D
:101090006C346534633474346534643400340A3435
:1010A00020347234653473346534743420347334CA
:0C10B00065346C346534633474340034EF
:101D340008008B108F3108270800C2302A00910058
:101D44000800C2302A0095000800163021009700D0
:101D54000800F0007008220099000800F4007408DC
:101D64008F3100270800F30073082800960008004C
:101D7400803022009800FF30990008007408210088
:101D8400CE007308CD00080074082100D200730847
:101D9400D100080074082100D0007308CF000800A7
:101DA40074082100CC007308CB00080074082100DB
:101DB400CA007308C900080074082100C800730829
:101DC400C7000800640080010131890BE52E00344E
:101DD400FE0012001E00FE0BEB2E00346A302100C0
:101DE40099009A019801220096010800FF30200012
:101DF4009B009A01911006309C000800F30020001B
:101E0400111E012F730823009A00080021004B08BB
:101E14004C04031908004C088A004B080A008F314F
:101E240008008B1021001513F130F3000430F40086
:101E34008E31D2260B16080020009210210047088C
:101E440048040319080048088A0047080A008F312B
:101E540008000B11790820009500210049084A0464
:101E6400031908004A088A0049080A008F3108004B
:101E740021001508C0391538950020009501F90195
:101E84000B118B120230F3000030F4008E31D8268F
:101E940008000430280096009501200092102100CB
:101EA40092145D30F3000F30F4008E31DE261630CC
:101EB4002800970008002100240803196D2FA401AD
:101EC4007A080319692F5E088E31AB260800FF30AB
:101ED4008E31AB260800A401A40A5E088E31AB261D
:101EE4000800F6007408031D7A2F21008E167F2F38
:101EF400DF30F500750821008E057403FF3AFF3EBC
:101F04002500910076082C00980073089B000800B7
:101F140000308B1B0130F5008B13730823009100F4
:101F24007408920015131516151555309600AA302D
:101F3400960095140000000023001511750C031C75
:101F44008B1303188B17080077302000A00020089B
:101F5400A30076082000A1007508A000F50A031963
:101F6400F60A20088400210885000008A20022083F
:101F7400A40024080319080024088E31B0268F31E8
:101F8400AB2F4130F7007708F300F401E1308F31D3
:101F940073278F318230F700DE30890BCF2FF70B98
:101FA400CF2FF301F40100308F3173278F311430B8
:101FB400F5008830F6008F31A62708000534033475
:101FC400003400340034003400340034003400346D
:101FD400003400340034003400340034003400345D
:101FE400003400340034003400340034003400344D
:0C1FF400003400340034003400340034A9
:020000040001F9
:04000E00E421FF3EAC
:00000001FF
