:020000040000FA
:04000000803114280F
:100008007E1480310B1A8B1C0D288531A625803172
:1000180012288B190B1C12288531AA257E1009007D
:1000280080311628F001F101F201F301F401F50124
:10003800F6013F308400003085000E3085316D2593
:100048008031A030840000308500213085316D2555
:100058007E1020008331C92B2000BD00A001A10122
:1000680000308431ED248031B028A001A101003096
:100078008431ED24803120004603031D6428973025
:10008800440203184D2844081E3EBB003B08C40028
:1000980054289630BB003B08C40082319922803135
:1000A80096302000AB008530AC004408BB00BC0192
:1000B8003B08AD003C08AE008031FF208031DE28CF
:1000C800023046060319DE28823199228031DE2863
:1000D8004603031D64289730440203188728440800
:1000E800E23EBB003B08C4009630AB008530AC0054
:1000F8004408BB00BC013B08AD003C08AE008031A1
:10010800FF208031DE289630BB003B08C4006828F9
:10011800843183248031DE28C9018230BB003B084A
:10012800C800FF30BB003B08C7000230BB003B08DB
:10013800C600DE28C901FF30BB003B08C800C70164
:100148001B30AB008530AC008031FF2080312000AF
:10015800C601DE28C401DE2820003D08033E8600D3
:1001680087010108083A03199E28183A03199028AC
:10017800083A0319DE28303A0319DE28603A0319D1
:10018800DE28183A03198C28083A0319DE28303A71
:100198000319DE28E03A0319AE28103A0319DE28BD
:1001A800383A03193928083A0319DE28183A031986
:1001B8006C28DE2820004808BB003B08A000470840
:1001C800BC003C08A10049088431ED248031063088
:1001D8002000BC001330BB00AD30890BF128BB0BED
:1001E800F128BC0BF12800322000A001A101003049
:1001F8008431ED2408002D302000AF002F08B30013
:1002080020002C08B0002B08AF00AB0A0319AC0A79
:100218002F088400300885000008B1003108B800B4
:10022800380803190800253038060319202938082A
:100238008531912580310429B4012C08B0002B08A0
:10024800AF00AB0A0319AC0A2F08840030088500F8
:100258000008B800003A0319B129643A031938298B
:100268000D3A031938290429330886008701403FCD
:10027800B600413FB7000230AF002F08B307B71FE1
:100288004E290330AF002F08B404B609B709B60ADF
:100298000319B70AB801B80A3808AF00B001AF357A
:1002A800B00D41302F0784008530303D8500003F78
:1002B800B100013FB20032083702031D6529310839
:1002C8003602031C6F290130AF002F08B80705302C
:1002D8003806031D502934080339031977292D30AE
:1002E80085319125803120003808AF002F08B500EE
:1002F800FF302000AF002F08B507350A031904297D
:100308000A30A7000030A8003508AF00B001AF35AB
:10031800B00D41302F0784008530303D8500003F07
:10032800A000013FA1003708A3003608A2008331CE
:100338006323803120002108AA002008A900843105
:100348005624803120002708303EB1003108B8001B
:1003580038088531912580317C2908002000A901C1
:10036800A31FC329A009A109A209A309A00A031967
:10037800A10A0319A20A0319A30AA901A90AA71F16
:10038800D429A409A509A609A709A40A0319A50A35
:100398000319A60A0319A70A0130F9007908A90662
:1003A8000030AD000030AC000030AB000030AA00D7
:1003B800230822042104200403191D2AA801A80ADD
:1003C800A31BF2290130A035A10DA20DA30D890BA5
:1003D800E7290130F9007908A807E4290130AA358E
:1003E800AB0DAC0DAD0D890BF32923082702031DB6
:1003F800072A22082602031D072A21082502031DB1
:10040800072A20082402031C122A2008A402210813
:10041800A53B2208A63B2308A73B2A140130A33694
:10042800A20CA10CA00C890B132A0130A802031DF1
:10043800F229290803192B2AAA09AB09AC09AD0925
:10044800AA0A0319AB0A0319AC0A0319AD0A2D0845
:10045800A3002C08A2002B08A1002A08A00008006D
:1004680020001508F7007708F80095010B19F80126
:100478000B118C2AB4307802031C972AF4307802C6
:100488000318972AF101F201F20A7808F7007708B1
:100498002100A000972A0130F335F40DF50DF60D73
:1004A800890B502A1D307802031C6C2A2A307802E6
:1004B80003186C2A7808F7007108A13E86008701A6
:1004C8007708810073140130F7007708F1077F2A55
:1004D8000E307802031C7D2A1530780203187D2A15
:1004E8007808F7007108A13E860087017708810027
:1004F800672AF201972A20307106031D972A73098B
:100508007406031D7D2A0230F7007708F200972A47
:100518007208003A03193E2A013A03194F2A033A8E
:100528000319972A7D2A8B1008002000A001A10139
:10053800FF308431ED24823103302000A3008A305B
:10054800A2005530890BA62AA20BA62AA30BA62A1D
:1005580000322000A001A10100308431ED24823155
:1005680003302000A3008A30A2005530890BBA2A34
:10057800A20BBA2AA30BBA2A00322000A001A101BB
:10058800FF308431ED24823103302000A3008A300B
:10059800A2005530890BCE2AA20BCE2AA30BCE2A55
:1005A80000322000A001A10100308431ED24823105
:1005B80003302000A3008A30A2005530890BE22ABC
:1005C800A20BE22AA30BE22A00320800FF30200027
:1005D8009B001C08FC3902389C001C1521000E16D3
:1005E8000E303D00A400CF3025009E052C00980158
:1005F8003F3097051916EF30F900790821008E056C
:100608002C00991721008C160F303D0095003F30C3
:1006180025009E052C009B013F309A051C16DF30F3
:10062800F900790821008C052C009C1721008E16F2
:100638000C303D00A50025001308F0390C38930054
:10064800FF30910030309304DF30F9007908210041
:100658008E0508002000A201A3012000A001FF30A0
:10066800FB007B08A100FF308431ED248331823008
:10067800FB00DE30890B3E2BFB0B3E2B2000A0013C
:10068800A10100308431ED2483318230FB00DE305B
:10069800890B4C2BFB0B4C2B01302000A2070030A0
:1006A800A33D2308803AFB0080307B02031D5E2BAC
:1006B80005302202031C312B2000C4010800200051
:1006C800A501A601200821040319932BA401A40A5B
:1006D800A11B782B0130A035A10D890B6F2B0130A0
:1006E800F9007908A4076C2B0130A535A60D890BF4
:1006F800792B21082302031D832B20082202031CC7
:100708008A2B2008A2022108A33B25140130A13618
:10071800A00C890B8B2B0130A402031D782B260813
:10072800A1002508A000080022008C018D018E017F
:10073800043021008C0020308D0010308E00230002
:100748008E018D018C0124008D018C018E01210008
:10075800951325008C018D018E01373026008C0001
:10076800F0308D00FF308E003F3027008C00F030D5
:100778008D00FF308E008B1502303C0090000D304C
:10078800A40014303D009F0008008431CF24833139
:1007980085318B2583318531A225833185319E258D
:1007A80083318231EA2283318B170B1783312E2351
:1007B800833184312824833120002F08803ABE00F9
:1007C80089303E02031DEA2BC4302E020318EF2B9A
:1007D8008331F923833102307206031DDD2B71301A
:1007E800803130208331F201DD2BFF302000A20060
:1007F8002208A000FF30A3002308A10000308431A4
:10080800ED24833102302000A3004530A200A93036
:10081800890B0C2CA20B0C2CA30B0C2C00322000E7
:10082800A001A10100308431ED2483310330200080
:10083800A3008A30A2005530890B202CA20B202C53
:10084800A30B202C003208008130220097007D3055
:1008580021009D0090309E002200171F302C0000C0
:10086800000000000000000021009D149D183A2C93
:100878001D101B082000A00021001C082000A1005A
:10088800A201A3010030A7000F30A600FC30A5008C
:100898000030A4008131B22120002108AF002008D7
:1008A800AE00080020002708280403197E2CFB014D
:1008B800FB0AA81B692C0130A735A80D890B602CF1
:1008C8000130FA007A08FB075D2C28082A02031D6C
:1008D8006F2C27082902031C752C2708A902280851
:1008E800AA3B0130A836A70C890B762C0130FB02F5
:1008F800031D692C2A08A8002908A7000800200061
:10090800C601C60AA001FF30B9003908A100FF30AE
:100918008431ED24843106302000BA001330B90048
:10092800AD30890B952CB90B952CBA0B952C003250
:100938002000A001A10100308431ED24843106306B
:100948002000AB008530AC008031FF200800083063
:1009580023009F0090309D0024309E0008309B00AB
:100968009C0100302000A0000030A10085317F25C7
:10097800843100302000A0000030A10085317925A5
:10098800843100302000A0000030A1008531852589
:100998002000CA01080083319823843185316525F8
:1009A800843185319A25843185318B25843185318F
:1009B800A225843185319E25843185315D25843198
:1009C80085312A25843185314B2584318431AB2406
:1009D8000800FA0020002108031DF52C21008E16BE
:1009E800FA2CDF30F900790821008E052000210952
:1009F800250091007A082C009800200020082C007F
:100A08009B0008000A34203446347234653471344B
:100A1800753465346E346334793420347334653412
:100A28006C346534633474346534643400340A34A3
:100A38002034723465347334653474342034733438
:100A480065346C3465346334743400348B1021009D
:100A5800151334302000A0000230A1008531732521
:100A68000B16080020004D084E04031908004E0814
:100A78008A004D080A0085310800013400340A3420
:100A8800003464340034E83403341034273421004B
:100A98001508C0391538950020009501F0010B1193
:100AA8000800F9002000111E562D790823009A002D
:100AB8000800FF3020009B009A01911006309C002E
:100AC80008006A30210099009A01980122009601D5
:100AD8000800640080010131890B6E2D003420006C
:100AE8002108CE002008CD00080020002108D200EF
:100AF8002008D100080020002108D4002008D300D5
:100B0800080020002108D0002008CF00080080300D
:100B180022009800FF3099000800FA007A08853111
:100B280055250800253464340A3400341630210071
:100B380097000800D2302A0095000800D2302A0019
:0E0B4800910008008B1085313625080008004A
:020000040001F9
:04000E00E421FF3EAC
:00000001FF
