:020000040000FA
:0400000080312728FC
:100008007E1480318B1A0B1D0D288631EA2680312B
:1000180025280B1A8B1C142887317F278031252827
:100028008B190B1C1B2887318527803125280B1F2E
:1000380025282100921C25282000921C252887317C
:1000480004277E10090080312928873183278031D1
:10005800FB006F30840087308500693086000030EF
:100068008700043087314927803101308400863089
:100078008500A0308600003087002230873149276C
:100088008031F001F101F201F301F401F5014E3084
:10009800840000308500153087314F278031C23009
:1000A800840000308500213087314F277E102000E2
:1000B8008431D52C2000CC00A001A101003086316C
:1000C8006026803111295603031D91280130CE077F
:1000D8000030CF3D4F08803ACA0080304A02031DE5
:1000E80077280B304E02031C7E280A302000CE00F1
:1000F8000030CF0020004E35A03E86008701403FEB
:10010800BC00413FBD008531332580313B08BF002D
:100118003A08BE0081316021803102302000560645
:10012800031DB6280130D4070030D53D5508803A64
:10013800CA0080304A02031DA32806305402031C5B
:10014800AA2805302000D4000030D50020005435FE
:10015800B63E86008701403FBA00413FBB0083316D
:10016800D323803120005608031DBD288331832303
:100178008031033020005606031D3F298331832335
:1001880080313F295603031DE328FF30CE07FF3097
:10019800CF3DCF1FD128CE01CF014E35A03E8600DE
:1001A8008701403FBC00413FBD0085313325803188
:1001B8003B08BF003A08BE0081316021803102301F
:1001C80020005606031DB628FF30D407FF30D53D62
:1001D800D51FF028D401D5015435B63E86008701D5
:1001E800403FBA00413FB22885318D2580313F29F3
:1001F8008531B62580313F29DD01FF30CA004A0824
:10020800DC00DB01DB30A0008630A100863144260B
:100218008031DA013F29D8013F2920004C08033EEC
:10022800860087010108083A03190029183A0319BA
:10023800FC28083A03193F29303A03193F29603A44
:1002480003193F29183A0319F828083A03193F29CE
:10025800303A03193F29E03A03190F29103A0319D4
:100268003F29383A03196728083A03193F29183AE9
:100278000319C6283F2920005C08CA004A08A000C4
:100288005B08CB004B08A1005D08863160268031F1
:1002980006302000CB001330CA00AD30890B52293C
:1002A800CA0B5229CB0B522900322000A001A10110
:1002B80000308631602608000030AF000030AE0004
:1002C8000330AD00E830AC00F430C0000130C100AC
:1002D8000030C2000030C3003C08A0003D08A10067
:1002E800890D893B8909A200A3000030A7000030CE
:1002F800A6001230A5005C30A400853104258131A8
:100308002008C0072108C13D2208C23D2308C33D7B
:100318004308B3004208B2004108B1004008B000E9
:100328008231E02281312C083E02E1002D083F3B5A
:10033800E2003E08AC003F08AD00890D893B890901
:10034800AE00AF000230A0000030A1003F08A300BB
:100358003E08A2008331322381312008C0002108E1
:10036800C1000030C11BFF30C200C3006108C400D7
:100378006208C500C601C7010830C435C50DC60DE1
:10038800C70D890BC1294408C0074508C13D460867
:10039800C23D4708C33D4308B3004208B2004108C4
:1003A800B1004008B0008131FB2181312D08C9001E
:1003B8002C08C8004908803AC00081304002031D5B
:1003C800E72900304802031CEE29FF302000C8004E
:1003D8000030C9002000C91FF329C801C901480815
:1003E800C0004008DE004808220099000800B50156
:1003F800AF1F0B2AAC09AD09AE09AF09AC0A031946
:10040800AD0A0319AE0A0319AF0AB501B50AB31F3D
:100418001C2AB009B109B209B309B00A0319B10A13
:100428000319B20A0319B30A0130F9007908B506AD
:100438000030B9000030B8000030B7000030B60016
:100448002F082E042D042C040319652AB401B40ABC
:10045800AF1B3A2A0130AC35AD0DAE0DAF0D890B8F
:100468002F2A0130F9007908B4072C2A0130B63553
:10047800B70DB80DB90D890B3B2A2F083302031DA0
:100488004F2A2E083202031D4F2A2D083102031D60
:100498004F2A2C083002031C5A2A2C08B0022D08B7
:1004A800B13B2E08B23B2F08B33B36140130AF36B0
:1004B800AE0CAD0CAC0C890B5B2A0130B402031DE9
:1004C8003A2A35080319732AB609B709B809B909C8
:1004D800B60A0319B70A0319B80A0319B90A390879
:1004E800AF003808AE003708AD003608AC00080089
:1004F8001508F6007608F70095010B19F7010B119E
:10050800D32AB4307702031CDE2AF43077020318AA
:10051800DE2AF001F101F10A7708F60076082100D9
:10052800C200DE2A0130F235F30DF40DF50D890B0A
:10053800972A1D307702031CB32A2A307702031842
:10054800B32A7708F6007008C33E8600870176084C
:10055800810072140130F6007608F007C62A0E30C2
:100568007702031CC42A153077020318C42A7708B7
:10057800F6007008C33E8600870176088100AE2A1F
:10058800F101DE2A20307006031DDE2A7209730687
:10059800031DC42A0230F6007608F100DE2A71082D
:1005A800003A0319852A013A0319962A033A0319CE
:1005B800DE2AC42A8B1008000030B7000030B600CD
:1005C8000030B5000030B4002F082E042D042C0490
:1005D8000319292BB801B80AAF1BFE2A0130AC3524
:1005E800AD0DAE0DAF0D890BF32A0130F800780878
:1005F800B807F02A0130B435B50DB60DB70D890B23
:10060800FF2A2F083302031D132B2E083202031D65
:10061800132B2D083102031D132B2C083002031C49
:100628001E2B2C08B0022D08B13B2E08B23B2F0818
:10063800B33B34140130AF36AE0CAD0CAC0C890BA7
:100648001F2B0130B802031DFE2A3708AF003608F9
:10065800AE003508AD003408AC000800A501A11FA4
:100668003C2BA009A109A00A0319A10AA501A50A02
:10067800A31F472BA209A309A20A0319A30A013041
:10068800F8007808A506A601A70120082104031987
:10069800762BA401A40AA11B5B2B0130A035A10D68
:1006A800890B522B0130F8007808A4074F2B013032
:1006B800A635A70D890B5C2B21082302031D662B89
:1006C80020082202031C6D2B2008A2022108A33B4C
:1006D80026140130A136A00C890B6E2B0130A40220
:1006E800031D5B2B250803197E2BA609A709A60A5B
:1006F8000319A70A2708A1002608A0000800A001DE
:10070800A101FF3086316026833103302000A30029
:100718008A30A2005530890B8F2BA20B8F2BA30B8D
:100728008F2B00322000A001A10100308631602605
:10073800833103302000A3008A30A2005530890B92
:10074800A32BA20BA32BA30BA32B00322000A001E9
:10075800A101FF3086316026833103302000A300D9
:100768008A30A2005530890BB72BA20BB72BA30BED
:10077800B72B00322000A001A1010030863160268D
:10078800833103302000A3008A30A2005530890B42
:10079800CB2BA20BCB2BA30BCB2B003208003A0898
:1007A800A0003B08A100A201A3010030A70000306F
:1007B800A6000030A5006030A400853104258331EF
:1007C8002308AF002208AE002108AD002008AC00C5
:1007D8000030B3000F30B2004230B1004030B000FA
:1007E8008131FB2183312D08BD002C08BC003D0858
:1007F800803AFA0081307A02031D042C00303C0252
:10080800031C0B2CFF302000BC000030BD00200072
:100818003D08803AFA0080307A02031D152C4430D6
:100828003C0203181C2C44302000BC000030BD00E2
:1008380020003C08280096000800FF3020009B009C
:100848001C08FC3902389C001C1521000E160E30BD
:100858003D00A400CF3025009E052C0098013F30B4
:1008680097051916EF30F800780821008E052C003E
:10087800991721008C160F303D0095003F30250058
:100888009E052C009B013F309A051C16DF30F800AE
:10089800780821008C052C009C1721008E160C303E
:1008A8003D00A50025001308F0390C389300FF30EF
:1008B800910030309304DF30F800780821008E056D
:1008C80008002000D601A401A501B4302000A20030
:1008D8002208A000E630A3002308A10000308631DA
:1008E8006026843182302000A200DD30890B7A2C0A
:1008F800A20B7A2C00322000A001A1010030863121
:100908006026843182302000A200DD30890B8A2CD9
:10091800A20B8A2C003201302000A4070030A53D2C
:100928002508803AA20080302202031D9D2C053044
:100938002402031C692C2000D801080022008C0125
:100948008D018E01043021008C0030308D00503034
:100958008E00403023008E0010308D008C01240062
:100968008D018C018E012100951325008C018D01CC
:100978008E01373026008C00F0308D00FF308E005D
:100988003F3027008C00F0308D00FF308E008B1533
:1009980002303C0090000D30A40014303D009F0050
:1009A80008008631232684318731552784318731E1
:1009B8007B2784318731772784318431212484311E
:1009C8008B170B17843165248431853133258431A5
:1009D8003B08803ACD0089304D02031DF52CC43008
:1009E8003A020318FA2C85316025843102307106E9
:1009F800031DE92C703080315E208431F101E92C2F
:100A08000030AB000030AA000030A9000030A80078
:100A1800201C162D2408A8072508A93D2608AA3D4C
:100A28002708AB3D0130A435A50DA60DA70D890BF0
:100A3800172D0130A336A20CA10CA00C890B1E2D7A
:100A48002308220421042004031D0C2D2B08A300D5
:100A58002A08A2002908A1002808A000080081305F
:100A6800220097007D3021009D0090309E002200DA
:100A7800171F3B2D000000000000000000002100AF
:100A88009D149D18452D1D101B082000AC00210049
:100A98001C082000AD00AE01AF010030B3000F30DC
:100AA800B200FC30B1000030B0008131FB212D08CC
:100AB800BB002C08BA00080003302000A20022085E
:100AC800D600A001A101FF308631602685310230B1
:100AD8002000A3004530A200A930890B712DA20B7C
:100AE800712DA30B712D00322000A001A10100304F
:100AF80086316026853103302000A3008A30A200A9
:100B08005530890B852DA20B852DA30B852D003221
:100B180008000230A7002708D600A001FF30A70070
:100B28002708A100FF308631602685310630200075
:100B3800A8001330A700AD30890BA02DA70BA02D5E
:100B4800A80BA02D00322000A001A10100308631A1
:100B5800602685318F302000A0008630A1008631C4
:100B680044260800D601D60AA001FF30A7002708AE
:100B7800A100003086316026853106302000A800AB
:100B88001330A700AD30890BC72DA70BC72DA80BB5
:100B9800C72D00322000A001A10100308631602657
:100BA8008531A4302000A0008630A100863144267B
:100BB8000800083023009F0090309D0024309E00DC
:100BC80008309B009C0100302000A0000030A100EC
:100BD80087313227853100302000A0000030A10085
:100BE80087312A27853100302000A0000030A1007D
:100BF80087313A272000E0010800003400341E3411
:100C0800003432340034463400345A3400346E34FC
:100C1800003482340034A0340034BE340034DC3470
:100C28000034FA340034003400343234003464348C
:100C3800003478340034823400348C340034843105
:100C4800A22486318731222786318731732786315E
:100C580087315527863187317B2786318631B726FC
:100C6800863187317727863187311A278631863151
:100C7800F82686318631CA2686318531DD25080079
:100C88002230A2002208A50020002108A300200885
:100C9800A200A00A0319A10A2208840023088500DB
:100CA8000008A4002408A60026080319080026083E
:100CB80087315B278631482EF9002108031D672EEE
:100CC80021008E166C2EDF30F800780821008E0582
:100CD800200021092500910079082C0098002000A7
:100CE80020082C009B0008007B0803198C2EFB01B0
:100CF8005435B63E8600870116000104031D882E70
:100D08005E08220099000800FF30220099000800C0
:100D1800FB01FB0A842E0A342034463472346534CD
:100D28007134753465346E346334793420347334F3
:100D380065346C3465346334743465346434003435
:100D48000A342034633475347234723465346E3442
:100D580074342034733465346C34653463347434D7
:100D6800653464340034043028009600950120006E
:100D780092102100921478302000A0000630A100C3
:100D880087316027163028009700080021001508D1
:100D9800C0391538950020009501DF010B118B161D
:100DA8008430A0000730A1008731652708000A3485
:100DB80020347234653473346534743420347334B5
:100DC80065346C3465346334743400340B1120009A
:100DD8005F089500650866040319080066088A001C
:100DE80065080A00863108008B10210015137C3035
:100DF8002000A0000230A10087316A270B160800E6
:100E08009210630864040319080064088A006308E0
:100E18000A008731080020006708680403190800E1
:100E280068088A0067080A0087310800FF30200038
:100E38009B009A01911006309C0008006A3021003E
:100E480099009A01980122009601080021082100C2
:100E5800E600200020082100E50008002108210004
:100E6800E800200020082100E700080021082100F0
:100E7800E400200020082100E3000800F800111E0B
:100E8800432F780823009A000800FE0012001E0075
:100E9800FE0B4A2F0034640080010131890B502F6A
:100EA8000034803022009800FF3099000800F900D3
:100EB80079088731422708002108E4002008E30068
:100EC80008002108E6002008E50008002108E800DD
:100ED8002008E7000800063400340B3400341630CC
:100EE800210097000800C2302A0095000800C2308F
:100EF8002A00910008008B1087310F270800013461
:040F080008000800D5
:020000040001F9
:04000E00E421FF3EAC
:00000001FF
