:020000040000FA
:1000000080312028080001347E1480310B1A8B1CAB
:100010000D288E31622680311E288B190B1C142866
:100020008031022080311E280B1F1E282100921CC7
:100030001E282000921C1E288E31F1267E100900F9
:1000400080312228803103208031D800FD308400A7
:100050008E308500CF3086000030870010308E3122
:10006000842680311F3084008F3085004130860027
:100070000130870016308E3184268031FD014030FA
:100080008400003085000E308E317E268031DF30D6
:100090008400003085000B308E317E268031203088
:1000A00084000130850021308E317E267E102000B4
:1000B0008631D52E2100CD00A001A10100308F3165
:1000C0003527803113296303031D8F280130E10791
:1000D0000030E23D6208803ACB0080304B02031DC5
:1000E00073280B306102031C7A280A302100E100DA
:1000F0000030E20021006135413E8600013087007A
:10010000403FBD00413FBE008731C1278031210003
:100110003C08C0003B08BF0082310622803102301B
:1001200021006306031DB4280130DF070030E03DE5
:100130006008803ACB0080304B02031DA1280630B6
:100140005F02031CA82805302100DF000030E0001A
:1001500021005F35D33E86008701403FBB00413F11
:10016000BC008531A725803121006308031DBB2811
:10017000853105258031033021006306031D4129A7
:1001800085310525803141296303031DE328FF30B4
:10019000E107FF30E23DE21FCF28E101E2016135D6
:1001A000413E860001308700403FBD00413FBE0018
:1001B0008731C127803121003C08C0003B08BF00C7
:1001C000823106228031023021006306031DB428EB
:1001D000FF30DF07FF30E03DE01FF028DF01E001E6
:1001E0005F35D33E86008701403FBB00413FB028CA
:1001F0008F31D627803141298F31AE278031412977
:10020000E701FF30CB004B08E600E5011430A20007
:100210008830A3008F314C2780312100E40141292F
:100220002000C501412921004D08033E86008701B9
:100230000108083A03190029183A0319FC28083A5A
:1002400003194129303A03194129603A0319412918
:10025000183A0319F828083A03194129303A0319C2
:100260004129E03A03191029103A03194129383A73
:1002700003196328083A03194129183A0319C428B5
:10028000412921006608CB004B08A0006508CC007E
:100290004C08A10067088F313527803106302100D6
:1002A000CC001330CB00AD30890B5429CB0B542933
:1002B000CC0B542900322100A001A10100308F3164
:1002C0003527080000302000A3000030A2000330D2
:1002D000A100E830A000F430B4000130B5000030D7
:1002E000B6000030B7003008F0003108F100890D89
:1002F000893B8909F200F3000030F7000030F60076
:100300001230F5005C30F4008731372781317008F6
:100310002000B4077108B53D7208B63D7308B73DBB
:100320003708A7003608A6003508A5003408A40041
:100330008431602481312000200832022100E8004D
:1003400020002108333B2100E90020003208A000F2
:100350003308A100890D893B8909A200A30002305E
:10036000F0000030F1003308F3003208F20085316C
:100370005625813170082000B4007108B5000030A6
:10038000B51BFF30B600B700210068082000B80098
:10039000210069082000B900BA01BB010830B83556
:1003A000B90DBA0DBB0D890BCF293808B407390830
:1003B000B53D3A08B63D3B08B73D3708A7003608BB
:1003C000A6003508A5003408A40083312423813118
:1003D00020002108BD002008BC003D08803AB40080
:1003E00081303402031DF62900303C02031CFD2934
:1003F000FF302000BC000030BD002000BD1F022ADD
:10040000BC01BD013C082200990008000030210019
:10041000AF000030AE000330AD00E830AC00F43087
:10042000C1000130C2000030C3000030C4003D08EC
:10043000A0003E08A100890D893B8909A200A30004
:100440000030A7000030A6001230A5005C30A400E8
:1004500087310727823121002008C1072108C23DCA
:100460002208C33D2308C43D4408B3004308B2003A
:100470004208B1004108B00084310D2482312100CE
:100480002C083F02E8002D08403BE9003F08AC0083
:100490004008AD00890D893B8909AE00AF000230EC
:1004A000A0000030A1004008A3003F08A200843152
:1004B000B324823121002008C1002108C20000308D
:1004C000C21BFF30C300C4006808C5006908C6002D
:1004D000C701C8010830C535C60DC70DC80D890B49
:1004E0006B2A4508C1074608C23D4708C33D480876
:1004F000C43D4408B3004308B2004208B1004108BB
:10050000B0008231A222823121002D08CA002C08BD
:10051000C9004A08803AC10081304102031D922A75
:1005200000304902031C992AFF302100C900003025
:10053000CA002100CA1F9E2AC901CA014908220017
:10054000990008002100B601AF1FB32AAC09AD091C
:10055000AE09AF09AC0A0319AD0A0319AE0A0319B3
:10056000AF0AB601B60AB31FC42AB009B109B2096D
:10057000B309B00A0319B10A0319B20A0319B30A7D
:100580000130B4003408B6060030BA000030B900BB
:100590000030B8000030B7002F082E042D042C04C2
:1005A00003190D2BB501B50AAF1BE22A0130AC359A
:1005B000AD0DAE0DAF0D890BD72A0130B400340854
:1005C000B507D42A0130B735B80DB90DBA0D890B6E
:1005D000E32A2F083302031DF72A2E083202031DD7
:1005E000F72A2D083102031DF72A2C083002031CBC
:1005F000022B2C08B0022D08B13B2E08B23B2F086D
:10060000B33B37140130AF36AE0CAD0CAC0C890BDC
:10061000032B0130B502031DE22A360803191B2BF8
:10062000B709B809B909BA09B70A0319B80A031909
:10063000B90A0319BA0A3A08AF003908AE003808F7
:10064000AD003708AC0008002000A901A31F352B1E
:10065000A009A109A209A309A00A0319A10A031963
:10066000A20A0319A30AA901A90AA71F462BA409D4
:10067000A509A609A709A40A0319A50A0319A60A28
:100680000319A70A0130F9007908A9060030AD0066
:100690000030AC000030AB000030AA002308220478
:1006A0002104200403198F2BA801A80AA31B642B83
:1006B0000130A035A10DA20DA30D890B592B0130DE
:1006C000F9007908A807562B0130AA35AB0DAC0DFF
:1006D000AD0D890B652B23082702031D792B2208FA
:1006E0002602031D792B21082502031D792B2008E2
:1006F0002402031C842B2008A4022108A53B220805
:10070000A63B2308A73B2A140130A336A20CA10C58
:10071000A00C890B852B0130A802031D642B29082E
:1007200003199D2BAA09AB09AC09AD09AA0A031943
:10073000AB0A0319AC0A0319AD0A2D08A3002C0853
:10074000A2002B08A1002A08A0000800200015081C
:10075000F0007008F10095010B19F1010B11002C4C
:10076000B4307102031C0B2CF430710203180B2CF3
:10077000C801C901C90A7108F00070082200A00070
:100780000B2C0130CA35CB0DCC0DCD0D890BC22BF6
:100790001D307102031CDF2B2A3071020318DF2B7E
:1007A0007108F0004808213E86000130870070087B
:1007B00081004A140130F0007008C807F32B0E3096
:1007C0007102031CF12B153071020318F12B710813
:1007D000F0004808213E8600013087007008810043
:1007E000DA2BC9010B2C20304806031D0B2C4A09BB
:1007F0004B06031DF12B0230F0007008C9000B2CD2
:100800004908003A0319B02B013A0319C12B033AE6
:1008100003190B2CF12B8B10080000302100B800BD
:100820000030B7000030B6000030B5002F082E04AD
:100830002D042C040319572CB901B90AAF1B2C2C19
:100840000130AC35AD0DAE0DAF0D890B212C013053
:10085000B4003408B9071E2C0130B535B60DB70DFC
:10086000B80D890B2D2C2F083302031D412C2E08A7
:100870003202031D412C2D083102031D412C2C088E
:100880003002031C4C2C2C08B0022D08B13B2E0862
:10089000B23B2F08B33B35140130AF36AE0CAD0C74
:1008A000AC0C890B4D2C0130B902031D2C2C3808DF
:1008B000AF003708AE003608AD003508AC000800C0
:1008C00000302000AB000030AA000030A90000304A
:1008D000A80023082204210420040319AA2CAC0137
:1008E000AC0AA31B7F2C0130A035A10DA20DA30DD6
:1008F000890B742C0130FC007C08AC07712C013092
:10090000A835A90DAA0DAB0D890B802C2308270251
:10091000031D942C22082602031D942C2108250275
:10092000031D942C20082402031C9F2C2008A402E1
:100930002108A53B2208A63B2308A73B2814013029
:10094000A336A20CA10CA00C890BA02C0130AC0288
:10095000031D7F2C2B08A3002A08A2002908A10050
:100960002808A00008002100A601A11FBE2CA00994
:10097000A109A00A0319A10AA601A60AA31FC92C4E
:10098000A209A309A20A0319A30A0130A40024089A
:10099000A606A701A801200821040319F82CA50127
:1009A000A50AA11BDD2C0130A035A10D890BD42C8B
:1009B0000130A4002408A507D12C0130A735A80DCB
:1009C000890BDE2C21082302031DE82C20082202BB
:1009D000031CEF2C2008A2022108A33B271401309E
:1009E000A136A00C890BF02C0130A502031DDD2CD3
:1009F00026080319002DA709A809A70A0319A80AA0
:100A00002808A1002708A00008002100A001A101DA
:100A1000FF308F313527853103302100A5008A3022
:100A2000A4005530890B122DA40B122DA50B122DED
:100A300000322100A001A10100308F31352785311E
:100A400003302100A5008A30A4005530890B262DE3
:100A5000A40B262DA50B262D00322100A001A101FB
:100A6000FF308F313527853103302100A5008A30D2
:100A7000A4005530890B3A2DA40B3A2DA50B3A2D25
:100A800000322100A001A10100308F3135278531CE
:100A900003302100A5008A30A4005530890B4E2D6B
:100AA000A40B4E2DA50B4E2D00320800F601F11FB0
:100AB000602DF009F109F00A0319F10AF601F60AAE
:100AC000F31F6B2DF209F309F20A0319F30A01303F
:100AD000F4007408F606F701F801700871040319B0
:100AE0009A2DF501F50AF11B7F2D0130F035F10D3E
:100AF000890B762D0130F4007408F507732D013051
:100B0000F735F80D890B802D71087302031D8A2DAE
:100B100070087202031C912D7008F2027108F33BF9
:100B200077140130F136F00C890B922D0130F5026B
:100B3000031D7F2D76080319A22DF709F809F70A7E
:100B40000319F80A7808F1007708F000080021007E
:100B50003B08A0003C08A100A201A3010030A700AF
:100B60000030A6000030A5006030A40087310727C0
:100B7000853121002308AF002208AE002108AD0016
:100B80002008AC000030B3000F30B2004230B1009A
:100B90004030B0008231A222853121002D08BF00F3
:100BA0002C08BE003F08803ABD0081303D02031D85
:100BB000DB2D00303E02031CE22DFF302100BE0081
:100BC0000030BF002100BF1FE72DBE01BF013E085E
:100BD000280096000800FF3020009B001C08FC390C
:100BE00002389C001C1521000E160E303D00A4009A
:100BF000CF3025009E052C0098013F30970519162F
:100C0000EF302100A00020088E052C00991721004C
:100C10008C160F303D0095003F3025009E052C00BE
:100C20009B013F309A051C16DF302100A0002008F0
:100C30008C052C009C1721008E160C303D00A50061
:100C400025001308F0390C389300FF309100303044
:100C50009304DF302100A00020088E050800210049
:100C6000E301A601A701B4302100A4002408A000DC
:100C7000E630A5002508A10000308F3135278631E8
:100C800082302100A400DD30890B442EA40B442EB9
:100C900000322100A001A10100308F3135278631BB
:100CA00082302100A400DD30890B542EA40B542E79
:100CB000003201302100A6070030A73D2708803A06
:100CC000A40080302402031D672E05302602031C79
:100CD000332E2000C50108002000580803199F2E5C
:100CE000D80121005F35D33E86008701160001043C
:100CF000031D902E21006135413E860001308700A2
:100D0000403F2000B000413FB10087316627863167
:100D100020002F08B3002E08B200813162210800A4
:100D200000302000B000B1008731662786312000F6
:100D30002F08B3002E08B200813162210800D801CB
:100D4000D80A7A2E22008C018D018E0104302100F8
:100D50008C0030308D0050308E00403023008E00EB
:100D600010308D008C0124008D018C018E0121003A
:100D7000951325008C018D018E01373026008C00E3
:100D8000F0308D00FF308E003F3027008C00F030B7
:100D90008D00FF308E008B1502303C0090000D302E
:100DA000A40014303D009F0008008F316927863170
:100DB0008E31722686318E31662686318E316A26D4
:100DC00086318531EB2586318B170B1786312F261F
:100DD00086318731C127863121003C08803ACE0018
:100DE00089304E02031DF62EC4303B020318FB2E41
:100DF000873194278631023020004906031DE92EF1
:100E0000483080315A2086312000C901E92E003057
:100E10002100AB000030AA000030A9000030A8007B
:100E2000201C1A2F2408A8072508A93D2608AA3D3A
:100E30002708AB3D0130A435A50DA60DA70D890BE4
:100E40001B2F0130A336A20CA10CA00C890B222F62
:100E50002308220421042004031D102F2B08A300C3
:100E60002A08A2002908A1002808A00008000030D4
:100E7000FB000030FA000030F9000030F800701C70
:100E8000492F7408F8077508F93D7608FA3D770888
:100E9000FB3D0130F435F50DF60DF70D890B4A2FAA
:100EA0000130F336F20CF10CF00C890B512F730862
:100EB000720471047004031D3F2F7B08F3007A084D
:100EC000F2007908F1007808F00008008130220073
:100ED00097007D3021009D0090309E002200171F5A
:100EE0006E2F0000000000000000000021009D1493
:100EF0009D18782F1D101B082000A00021001C0841
:100F00002000A100A201A3010030A7000F30A6001D
:100F1000FC30A5000030A4008331242320002108E8
:100F2000AF002008AE00080003302100A400240810
:100F3000E300A001A101FF308F3135278731023056
:100F40002100A5004530A400A930890BA52FA40BD2
:100F5000A52FA50BA52F00322100A001A101003073
:100F60008F313527873103302100A5008A30A40056
:100F70005530890BB92FA40BB92FA50BB92F00320F
:100F800008008130220097007D3021009D009030C4
:100F90009E002200171FC92F000000000000000063
:100FA000000021009D149D18D32F1D101B08AC00BC
:100FB0001C08AD00AE01AF010030B3000F30B2002D
:100FC000FC30B1000030B0008231A22221002D0897
:100FD000BC002C08BB0008000A34203446347234AC
:100FE00065347134753465346E3463347934203447
:100FF000733465346C346534633474346534643408
:1010000000340A34203463347534723472346534F5
:101010006E3474342034733465346C346534633422
:1010200074346534643400340A34203472346534E2
:101030007334653474342034733465346C346534FB
:0610400063347434003437
:101CC4008B108E31DB260800C2302A0091000800F8
:101CD400C2302A0095000800163021009700080041
:101CE400803022009800FF30990008002100A100F4
:101CF40021088E31D1260800640080010131890B4E
:101D04007F2E0034FE0012001E00FE0B852E0034D0
:101D14006A30210099009A01980122009601080076
:101D2400FF3020009B009A01911006309C000800AF
:101D3400210021082000D300210020082000D20027
:101D44000800210021082000D700210020082000DD
:101D5400D6000800210021082000D5002100200819
:101D64002000D4000800210021082000D100210017
:101D740020082000D0000800210021082000CF0006
:101D8400210020082000CE00080021001508C039D9
:101D94001538950020009501FD010B110800210064
:101DA400A0002000111ED32E2100200823009A0039
:101DB40008002000500851040319080051088A0043
:101DC40050080A008E3108008B1021001513A6302C
:101DD400A0000330A1008E31B5260B1608002000A8
:101DE40092104E084F04031908004F088A004E0849
:101DF4000A008E310800063400340B3400340034F9
:101E0400003432340034643400347834003482349E
:101E140000348C34003404302800960095012000EE
:101E24009210210092146C30A0000630A1008E3173
:101E3400BE261630280097000800003400341E34F3
:101E4400003432340034463400345A3400346E34AE
:101E5400003482340034A0340034BE340034DC3422
:101E64000034FA3400342100A3002108031D3C2F60
:101E74008E16402FDF30A20022088E05210925008E
:101E84009100210023082C009800210020082C0038
:101E94009B000800A4302100A4002408A70021000E
:101EA4002308A5002208A400A20A0319A30A2408EF
:101EB4008400250885000008A6002608A800280834
:101EC4000319080028088E3178268F31512F863166
:101ED400A2268F318E318A268F318E316E268F3134
:101EE4008E3172268F318E3166268F318E316A267D
:101EF4008F318F310D278F318E3192268F318E3174
:101F0400E6268F318E31C7268F318F318A2708001C
:101F1400083023009F0090309D0024309E0008303C
:101F24009B009C0100302100A0000030A1008E31F4
:101F3400A3268F3100302100A0000030A1008E3193
:101F4400AC268F3100302100A0000030A1008E317A
:101F54009A262000C70108002100E301E30AA0013A
:101F6400FF30A9002908A10000308F3135278F31B7
:101F740006302100AA001330A900AD30890BC02F10
:101F8400A90BC02FAA0BC02F00322100A001A10170
:101F940000308F3135278F3101302100A200883085
:101FA400A3008F314C27080002302100A900290822
:101FB400E300A001FF30A9002908A100FF308F3100
:101FC40035278F3106302100AA001330A900AD3027
:101FD400890BEA2FA90BEA2FAA0BEA2F0032210062
:101FE400A001A10100308F3135278F31EC30210061
:0C1FF400A2008730A3008F314C270800AA
:020000040001F9
:04000E00E421FF3EAC
:00000001FF
