:0400000080311A2809
:100008007E14803120007F08F2000B1A8B1C102808
:100018008631FC26803115288B190B1C1528873151
:10002800002772082000FF007E10090080311C287C
:10003800EC30840086308500683086000030870008
:1000480004308631BD268031D53084008530850066
:10005800A03086000030870022308631BD268031EE
:10006800F601F701F801F901FA014B30840000307C
:10007800850015308631C3268031C23084000030B7
:10008800850021308631C3267E1020008431A22CC1
:10009800F5002000A001A101003086313226803110
:1000A800132920005103031D8A280130CD07003091
:1000B800CE3D6A08FF3EC700FF306B3DC8004808C8
:1000C800803AC9004E08803A4902031D6D284D0840
:1000D80047020318762820006A08FF3ECD00FF304B
:1000E8006B3DCE0020004D35A03E86008701403F85
:1000F800B900413FBA008531042580312000370816
:10010800BC003608BB0081316121803102302000FB
:100118005106031DAC280130CB070030CC3D6808E0
:10012800FF3EC700FF30693DC8004808803AC90053
:100138004C08803A4902031DA3284B0847020318BC
:10014800AC2820006808FF3ECB00FF30693DCC009A
:1001580020005108031DB3288331922380310330D6
:1001680020005106031D4029833192238031402904
:1001780020005103031DDB28FF30CD07FF30CE3DA3
:10018800CE1FC828CD01CE014D35A03E860087017F
:10019800403FB900413FBA00853104258031200035
:1001A8003708BC003608BB0081316121803102303C
:1001B80020005106031DE828FF30CB07FF30CC3D57
:1001C800CC1FE828CB01CC015108031DEE28833150
:1001D80092238031033020005106031D40298331CA
:1001E80092238031402985315F258031402985312E
:1001F8008925803140292000D601FF30C7004708F3
:10020800D500D4017530A0008630A10086311526AE
:1002180080312000D30140292000D20140297508EF
:10022800033E860087010108083A0319FF28183A97
:100238000319FB28083A03194029303A03194029C1
:10024800603A03194029183A0319F728083A03199C
:100258004029303A03194029E03A03191029103A85
:1002680003194029383A03195528083A031940292F
:10027800183A0319BC28402920005508C700470828
:10028800A0005408C8004808A10056088631322644
:10029800803106302000C8001330C700AD30890B0C
:1002A8005329C70B5329C80B532900322000A0013A
:1002B800A101003086313226080000302000AF004E
:1002C8000030AE000330AD00E830AC00F430BD00C3
:1002D8000130BE000030BF000030C0003908A00067
:1002E8003A08A100890D893B8909A200A3000030C2
:1002F800A7000030A6001230A5005C30A4008431AD
:10030800D424813120002008BD072108BE3D2208E1
:10031800BF3D2308C03D4008B3003F08B2003E0877
:10032800B1003D08B0008231ED22813120002C0956
:10033800C1002D09C200C10A0319C20A3B084107BE
:10034800DE003C08423DDF003B08A8003C08A9004D
:10035800890D893B8909AA00AB000230A000003052
:10036800A1003C08A3003B08A2008331402381314F
:1003780020002008BD002108BE000030BE1BFF3051
:10038800BF00C0005E08C1005F08C200C301C4010D
:100398000830C135C20DC30DC40D890BCD294108E4
:1003A800BD074208BE3D4308BF3D4408C03D400864
:1003B800AF003F08AE003E08AD003D08AC008231FA
:1003C8000422813120002908C6002808C5004608F3
:1003D800803ABD0081303D02031DF42900304502FA
:1003E800031CFB29FF302000C5000030C600200098
:1003F800C61F002AC501C601450822009900080049
:100408002000B101AB1F152AA809A909AA09AB093F
:10041800A80A0319A90A0319AA0A0319AB0AB10100
:10042800B10AAF1F262AAC09AD09AE09AF09AC0A5B
:100438000319AD0A0319AE0A0319AF0A0130F40013
:100448007408B1060030B5000030B4000030B300C5
:100458000030B2002B082A042904280403196F2A43
:10046800B001B00AAB1B442A0130A835A90DAA0D6A
:10047800AB0D890B392A0130F4007408B007362A0D
:100488000130B235B30DB40DB50D890B452A2B08D3
:100498002F02031D592A2A082E02031D592A29084A
:1004A8002D02031D592A28082C02031C642A280837
:1004B800AC022908AD3B2A08AE3B2B08AF3B3214EF
:1004C8000130AB36AA0CA90CA80C890B652A01309F
:1004D800B002031D442A310803197D2AB209B30961
:1004E800B409B509B20A0319B30A0319B40A0319FE
:1004F800B50A3508AB003408AA003308A900320849
:10050800A800080020001508F0007008F100950107
:100518000B19F1010B11E02AB4307102031CEB2A0C
:10052800F43071020318EB2AD801D901D90A7108ED
:10053800F00070082100C200EB2A01302000DA35F3
:10054800DB0DDC0DDD0D890BA22A1D307102031CA9
:10055800BC2A2A3071020318BC2A7108F000580816
:10056800013EC23E86008701700881005A14CD2AD8
:100578000E307102031CDE2A153071020318DE2AC0
:100588007108F0005808013EC23E860087017008D5
:1005980081000130F0007008D80720305806031D8C
:1005A800EB2A5A095B06031DDE2A0230F0007008A8
:1005B800D900EB2AD901EB2A5908003A0319902AE5
:1005C800013A0319A12A033A0319EB2ADE2A8B10F0
:1005D800080000302000B7000030B6000030B50039
:1005E8000030B4002F082E042D042C040319372BD7
:1005F800B801B80AAF1B0C2B0130AC35AD0DAE0DF0
:10060800AF0D890B012B0130F3007308B807FE2AE0
:100618000130B435B50DB60DB70D890B0D2B2F086C
:100628003302031D212B2E083202031D212B2D0816
:100638003102031D212B2C083002031C2C2B2C0803
:10064800B0022D08B13B2E08B23B2F08B33B34143F
:100658000130AF36AE0CAD0CAC0C890B2D2B013034
:10066800B802031D0C2B3708AF003608AE0035085A
:10067800AD003408AC0008002000A501A11F4B2BD9
:10068800A009A109A00A0319A10AA501A50AA31F87
:10069800562BA209A309A20A0319A30A0130F300E1
:1006A8007308A506A601A701200821040319852BB4
:1006B800A401A40AA11B6A2B0130A035A10D890B46
:1006C800612B0130F3007308A4075E2B0130A635B7
:1006D800A70D890B6B2B21082302031D752B2008FE
:1006E8002202031C7C2B2008A2022108A33B26140B
:1006F8000130A136A00C890B7D2B0130A402031D0B
:100708006A2B250803198D2BA609A709A60A031920
:10071800A70A2708A1002608A00008002000A001B9
:10072800A101FF3086313226833103302000A30037
:100738008A30A2005530890B9F2BA20B9F2BA30B4D
:100748009F2B00322000A001A10100308631322603
:10075800833103302000A3008A30A2005530890B72
:10076800B32BA20BB32BA30BB32B00322000A00199
:10077800A101FF3086313226833103302000A300E7
:100788008A30A2005530890BC72BA20BC72BA30BAD
:10079800C72B00322000A001A1010030863132268B
:1007A800833103302000A3008A30A2005530890B22
:1007B800DB2BA20BDB2BA30BDB2B0032080020006A
:1007C800D101A401A5012508803AA20080302202A7
:1007D800031DF02B053024020318282CB430200008
:1007E800A2002208A000E630A3002308A1000030E0
:1007F80086313226833182302000A200DD30890B19
:10080800032CA20B032C00322000A001A101003010
:1008180086313226833182302000A200DD30890BF8
:10082800132CA20B132C003201302000A407003037
:10083800A53D2508803AA20080302202031D262CFF
:1008480005302402031CF22B2000D2010800FF30DF
:1008580020009B001C08FC3902389C001C15210054
:100868000E160E303D00A400CF3025009E052C004A
:1008780098013F3097051916EF30F30073082100EF
:100888008E052C00991721008C160F303D0095001D
:100898003F3025009E052C009B013F309A051C1611
:1008A800DF30F300730821008C052C009C17210011
:1008B8008E160C303D00A50025001308F0390C38C1
:1008C8009300FF30910030309304DF30F300730859
:1008D80021008E05080022008C018D018E01043054
:1008E80021008C0030308D0050308E0040302300C5
:1008F8008E0010308D008C0124008D018C018E013A
:100908002100951325008C018D018E0137302600BA
:100918008C00F0308D00FF308E003F3027008C00B7
:10092800F0308D00FF308E008B1502303C009000B7
:100938000D30A40014303D009F0008008531F725D4
:1009480084318631E12684318631F8268431863136
:10095800F426843184312B2484318B170B1783318F
:10096800E323843185310425843120003708803A17
:10097800CA0089304A02031DC32CC430360203184A
:10098800C82C853132258431023020005906031DD8
:10099800B62C583080314C2084312000D901B62C37
:1009A80000302000AB000030AA000030A900003061
:1009B800A800201CE72C2408A8072508A93D26081C
:1009C800AA3D2708AB3D0130A435A50DA60DA70DFE
:1009D800890BE82C0130A336A20CA10CA00C890BC2
:1009E800EF2C2308220421042004031DDD2C2B08EE
:1009F800A3002A08A2002908A1002808A0000800CE
:100A08008130220097007D3021009D0090309E00AB
:100A18002200171F0C2D000000000000000000003D
:100A280021009D149D18162D1D101B082000A800DC
:100A380021001C082000A900AA01AB010030AF006A
:100A48000F30AE00FC30AD000030AC008231042223
:100A580020002908B7002808B60008000330200045
:100A6800A2002208D100A001A101FF308631322660
:100A7800853102302000A3004530A200A930890B3F
:100A8800432DA20B432DA30B432D00322000A001C0
:100A9800A101003086313226853103302000A300C1
:100AA8008A30A2005530890B572DA20B572DA30B66
:100AB800572D0032080002302000A7002708D10077
:100AC800A001FF30A7002708A100FF308631322699
:100AD800853106302000A8001330A700AD30890BFF
:100AE800732DA70B732DA80B732D00322000A001C6
:100AF800A10100308631322685314D302000A0001A
:100B08008630A1008631152608002000D101D10ABF
:100B1800A001FF30A7002708A10000308631322647
:100B2800853106302000A8001330A700AD30890BAE
:100B38009B2DA70B9B2DA80B9B2D00322000A001FD
:100B4800A101003086313226853162302000A000B4
:100B58008630A100863115260800083023009F0042
:100B680090309D0024309E0008309B009C0100308E
:100B78002000A0000030A1008631D5268531003044
:100B88002000A0000030A1008631CF26853100303A
:100B98002000A0000030A1008631DB262000D7010C
:100BA8000800003400341E34003432340034463433
:100BB80000345A3400346E34003482340034A034A3
:100BC8000034BE340034DC340034FA3400340034E9
:100BD80000343234003464340034783400348234DD
:100BE80000348C34003484316F2485318631B52645
:100BF80085318631F02685318631E1268531863189
:100C0800F82685318631F42685318631AD26853141
:100C180086318426853186319B2685318531B125FB
:100C2800080022302000A2002208A5002000210888
:100C3800A3002008A200A00A0319A10A2208840020
:100C4800230885000008A4002408A6002608031924
:100C5800080026088631E72686311A2EF40020007F
:100C68002108031D3A2E21008E163F2EDF30F30097
:100C7800730821008E0520002103FF3AFF3E25005E
:100C8800910074082C009800200020082C009B007C
:100C980008000A34203446347234653471347534AB
:100CA80065346E34633479342034733465346C3489
:100CB8006534633474346534643400340A3420345D
:100CC800633475347234723465346E347434203459
:100CD800733465346C346534633474346534643423
:100CE80000340A342034723465347334653474340F
:100CF8002034733465346C346534633474340034AC
:100D08008B102100151386302000A0000230A100AE
:100D18008631C9260B1608002000600861040319F3
:100D2800080061088A0060080A008631080021006E
:100D38001508C0391538950020009501FA010B11E6
:100D48000800F3002000111EA62E730823009A0045
:100D58000800FF3020009B009A01911006309C008B
:100D680008006A30210099009A0198012200960132
:100D78000800FE0012001E00FE0BBE2E00346400A8
:100D880080010131890BC42E003420002108E100C4
:100D98002008E000080020002108E5002008E40001
:100DA800080020002108E7002008E60008002000CD
:100DB8002108E3002008E2000800803022009800A3
:100DC800FF3099000800F40074088631A526080051
:100DD800063400340B340034163021009700080024
:100DE800C2302A0095000800C2302A00910008008D
:0A0DF8008B108631902608000800D9
:020000040001F9
:04000E00E421FF3EAC
:00000001FF
