:020000040000FA
:0400000080312728FC
:100008007E1480318B1A0B1D0D288631E62680312F
:1000180025280B1A8B1C142887318B27803125281B
:100028008B190B1C1B2887319127803125280B1F22
:1000380025282100921C25282000921C252887317C
:1000480000277E1009008031292887318F278031C9
:10005800FB007B30840087308500683086000030E4
:10006800870004308731522780311230840086306F
:100078008500A03086000030870022308731522763
:100088008031F001F101F201F301F401F5014E3084
:100098008400003085001430873158278031C23001
:1000A8008400003085002130873158277E102000D9
:1000B8008431E12C2000CC00A001A1010030863160
:1000C8007226803114295603031D92280130D00767
:1000D8000030D13D5108803ACA0080304A02031DE1
:1000E80077280B305002031C7E280A302000D000ED
:1000F8000030D10020005035A03E86008701403FE7
:10010800BC00413FBD0085314125803120003B08BE
:10011800BF003A08BE0081316321803102302000DF
:100128005606031DB7280130CE070030CF3D4F08D3
:10013800803ACA0080304A02031DA42806304E02C5
:10014800031CAB2805302000CE000030CF00200073
:100158004E35B63E86008701403FBA00413FBB009E
:1001680083318B23803120005608031DBE2883313C
:10017800DC238031033020005606031D42298331D9
:10018800DC23803142295603031DE528FF30D007C0
:10019800FF30D13DD11FD228D001D1015035A03E2A
:1001A80086008701403FBC00413FBD0085314125A5
:1001B800803120003B08BF003A08BE00813163212E
:1001C8008031023020005606031DB728FF30CE07C5
:1001D800FF30CF3DCF1FF228CE01CF014E35B63EBE
:1001E80086008701403FBA00413FB32885319C25EE
:1001F800803142298531C62580314229DD01FF3011
:10020800CA004A08DC00DB01D730A0008630A10014
:100218008631552680312000DA014229D801422949
:1002280020004C08033E860087010108083A03199C
:100238000229183A0319FE28083A03194229303AC4
:1002480003194229603A03194229183A0319FA286E
:10025800083A03194229303A03194229E03A0319A6
:100268001229103A03194229383A03196728083A1B
:1002780003194229183A0319C728422920005C08A3
:10028800CA004A08A0005B08CB004B08A1005D0823
:1002980086317226803106302000CB001330CA0028
:1002A800AD30890B5529CA0B5529CB0B552900327E
:1002B8002000A001A101003086317226080000301C
:1002C8002000AF000030AE000330AD00E830AC00D5
:1002D800F430C0000130C1000030C2000030C3005B
:1002E8003C08A0003D08A100890D893B8909A200AE
:1002F800A3000030A7000030A6001230A5005C3033
:10030800A40085311125813120002008C00721086B
:10031800C13D2208C23D2308C33D4308B30042083B
:10032800B2004108B1004008B0008231E6228131B4
:1003380020002C083E02E0002D083F3BE1003E086B
:10034800AC003F08AD00890D893B8909AE00AF00BC
:100358000230A0000030A1003F08A3003E08A20020
:1003680083313923813120002008C0002108C100D1
:100378000030C11BFF30C200C3006008C400610820
:10038800C500C601C7010830C435C50DC60DC70D67
:10039800890BC8294408C0074508C13D4608C23D25
:1003A8004708C33D4308B3004208B2004108B10002
:1003B8004008B0008131FF21813120002D08C9009B
:1003C8002C08C8004908803AC00081304002031D4B
:1003D800EF2900304802031CF629FF302000C8002E
:1003E8000030C9002000C91FFB29C801C9014808FD
:1003F8002200990008002000B501AF1F102AAC099F
:10040800AD09AE09AF09AC0A0319AD0A0319AE0A62
:100418000319AF0AB501B50AB31F212AB009B109FA
:10042800B209B309B00A0319B10A0319B20A0319C8
:10043800B30A0130F9007908B5060030B900003078
:10044800B8000030B7000030B6002F082E042D0485
:100458002C0403196A2AB401B40AAF1B3F2A0130DD
:10046800AC35AD0DAE0DAF0D890B342A0130F90056
:100478007908B407312A0130B635B70DB80DB90D72
:10048800890B402A2F083302031D542A2E083202F2
:10049800031D542A2D083102031D542A2C0830024A
:1004A800031C5F2A2C08B0022D08B13B2E08B23B72
:1004B8002F08B33B36140130AF36AE0CAD0CAC0C84
:1004C800890B602A0130B402031D3F2A350803193D
:1004D800782AB609B709B809B909B60A0319B70AD3
:1004E8000319B80A0319B90A3908AF003808AE0069
:1004F8003708AD003608AC00080020001508F600E3
:100508007608F70095010B19F7010B11D92AB430B9
:100518007702031CE42AF43077020318E42AF00176
:10052800F101F10A7708F60076082100C200E42AF2
:100538000130F235F30DF40DF50D890B9D2A1D30B0
:100548007702031CB92A2A3077020318B92A7708D8
:10055800F6007008C33E8600870176088100721491
:100568000130F6007608F007CC2A0E307702031C1B
:10057800CA2A153077020318CA2A7708F6007008C5
:10058800C33E8600870176088100B42AF101E42A77
:1005980020307006031DE42A72097306031DCA2A57
:1005A8000230F6007608F100E42A7108003A0319CF
:1005B8008B2A013A03199C2A033A0319E42ACA2A06
:1005C8008B10080000302000B7000030B600003063
:1005D800B5000030B4002F082E042D042C04031994
:1005E800302BB801B80AAF1B052B0130AC35AD0D67
:1005F800AE0DAF0D890BFA2A0130F8007808B8075C
:10060800F72A0130B435B50DB60DB70D890B062B99
:100618002F083302031D1A2B2E083202031D1A2B32
:100628002D083102031D1A2B2C083002031C252B20
:100638002C08B0022D08B13B2E08B23B2F08B33B63
:1006480034140130AF36AE0CAD0CAC0C890B262B34
:100658000130B802031D052B3708AF003608AE007D
:100668003508AD003408AC0008002000A501A11F22
:10067800442BA009A109A00A0319A10AA501A50AEA
:10068800A31F4F2BA209A309A20A0319A30A013029
:10069800F8007808A506A601A70120082104031977
:1006A8007E2BA401A40AA11B632B0130A035A10D48
:1006B800890B5A2B0130F8007808A407572B013012
:1006C800A635A70D890B642B21082302031D6E2B69
:1006D80020082202031C752B2008A2022108A33B34
:1006E80026140130A136A00C890B762B0130A40208
:1006F800031D632B25080319862BA609A709A60A3B
:100708000319A70A2708A1002608A000080020004E
:100718003A08A0003B08A100A201A3010030A700ED
:100728000030A6000030A5006030A40085311125F6
:10073800833120002308AF002208AE002108AD0055
:100748002008AC000030B3000F30B2004230B100D6
:100758004030B0008131FF21833120002D08BD00D9
:100768002C08BC003D08803AFA0081307A02031D4B
:10077800BF2B00303C02031CC62BFF302000BC00FE
:100788000030BD0020003D08803AFA0080307A022F
:10079800031DD02B82303C020318D72B8230200057
:1007A800BC000030BD0020003C082800960008006E
:1007B8002000A001A101FF30863172268331033069
:1007C8002000A3008A30A2005530890BE92BA20B28
:1007D800E92BA30BE92B00322000A001A101003076
:1007E80086317226833103302000A3008A30A200AC
:1007F8005530890BFD2BA20BFD2BA30BFD2B0032D3
:100808002000A001A101FF30863172268331033018
:100818002000A3008A30A2005530890B112CA20BAE
:10082800112CA30B112C00322000A001A1010030D3
:1008380086317226833103302000A3008A30A2005B
:100848005530890B252CA20B252CA30B252C003207
:100858000800FF3020009B001C08FC3902389C006F
:100868001C1521000E160E303D00A400CF302500C7
:100878009E052C0098013F3097051916EF30F800B7
:10088800780821008E052C00991721008C160F304E
:100898003D0095003F3025009E052C009B013F3010
:1008A8009A051C16DF30F800780821008C052C000A
:1008B8009C1721008E160C303D00A500250013085A
:1008C800F0390C389300FF30910030309304DF305A
:1008D800F800780821008E0508002000D601A40140
:1008E800A501B4302000A2002208A000E630A30031
:1008F8002308A1000030863172268431823020001E
:10090800A200DD30890B862CA20B862C0032200039
:10091800A001A10100308631722684318230200086
:10092800A200DD30890B962CA20B962C00320130E8
:100938002000A4070030A53D2508803AA200803099
:100948002202031DA92C05302402031C752C20004B
:10095800D801080022008C018D018E01043021008D
:100968008C0030308D0050308E00403023008E00D7
:1009780010308D008C0124008D018C018E01210026
:10098800951325008C018D018E01373026008C00CF
:10099800F0308D00FF308E003F3027008C00F030A3
:1009A8008D00FF308E008B1502303C0090000D301A
:1009B800A40014303D009F0008008631342684319D
:1009C800873170278431873187278431873183279E
:1009D800843184312D2484318B170B178431712491
:1009E800843185314125843120003B08803ACD008F
:1009F80089304D02031D022DC4303A020318072D19
:100A080085316F25843102307106031DF52C703055
:100A180080315E208431F101F52C00302000AB00DC
:100A28000030AA000030A9000030A800201C242DA6
:100A38002408A8072508A93D2608AA3D2708AB3D94
:100A48000130A435A50DA60DA70D890B252D013064
:100A5800A336A20CA10CA00C890B2C2D2308220470
:100A680021042004031D1A2D2B08A3002A08A20024
:100A78002908A1002808A00008008130220097005A
:100A88007D3021009D0090309E002200171F492DC7
:100A98000000000000000000000021009D149D18C7
:100AA800532D1D101B082000AC0021001C0820003D
:100AB800AD00AE01AF010030B3000F30B200FC3022
:100AC800B1000030B0008131FF2120002D08BB00AB
:100AD8002C08BA00080003302000A2002208D60023
:100AE800A001A101FF308631722685310230200035
:100AF800A3004530A200A930890B802DA20B802DC0
:100B0800A30B802D00322000A001A1010030863106
:100B18007226853103302000A3008A30A2005530A8
:100B2800890B942DA20B942DA30B942D0032080051
:100B380002302000A7002708D600A001FF30A70038
:100B48002708A100FF308631722685310630200043
:100B5800A8001330A700AD30890BB02DA70BB02D1E
:100B6800A80BB02D00322000A001A1010030863171
:100B7800722685318B302000A0008630A100863196
:100B8800552608002000D601D60AA001FF30A7008C
:100B98002708A100003086317226853106302000F2
:100BA800A8001330A700AD30890BD82DA70BD82D7E
:100BB800A80BD82D00322000A001A10100308631F9
:100BC80072268531A0302000A0008630A100863131
:100BD80055260800083023009F0090309D002430DF
:100BE8009E0008309B009C0100302000A0000030CF
:100BF800A10087312027853100302000A000003077
:100C0800A10087311727853100302000A00000306F
:100C1800A100873129272000DF01080000340034B3
:100C28001E34003432340034463400345A3400342C
:100C38006E34003482340034A0340034BE340034BE
:100C4800DC340034FA3400340034003432340034F4
:100C58006434003478340034823400348C34003402
:100C68008431AE24863187314227863187317F2708
:100C780086318731702786318731872786318631DB
:100C8800B326863187318327863187313A278631E3
:100C98008631F42686318631C62686318531EE25A1
:100CA800080022302000A2002208A5002000210808
:100CB800A3002008A200A00A0319A10A22088400A0
:100CC800230885000008A4002408A60026080319A4
:100CD800080026088731762786315A2EF900200029
:100CE8002108031D7A2E21008E167F2EDF30F80092
:100CF800780821008E052000210925009100790837
:100D08002C009800200020082C009B0008000A34C2
:100D180020344634723465347134753465346E3435
:100D2800633479342034733465346C346534633413
:100D380074346534643400340A34203463347534CC
:100D48007234723465346E347434203473346534D8
:100D58006C3465346334743465346434003404307A
:100D680028009600950120009210210092144A3024
:100D78002000A0000730A10087315E271630280028
:100D88009700080021001508C03915389500200083
:100D98009501DE010B118B169030A0000730A100E1
:100DA8008731642708000A34203472346534733478
:100DB800653474342034733465346C346534633486
:100DC800743400340B1120005E0895006408650433
:100DD8000319080065088A0064080A0086310800BB
:100DE8008B102100151381302000A0000230A100D3
:100DF80087316A270B1608002000921062086304E6
:100E08000319080063088A0062080A00873108008D
:100E18002000660867040319080067088A00660846
:100E28000A0087310800200021082100E600200080
:100E380020082100E5000800200021082100E80022
:100E4800200020082100E7000800200021082100D8
:100E5800E400200020082100E3000800F80020003A
:100E6800111E332F780823009A000800FF30200055
:100E78009B009A01911006309C0008006A302100FE
:100E880099009A0198012200960108007B0803192D
:100E98004F2FFB010800FB01FB0A0800FE001200AF
:100EA8001E00FE0B532F0034640080010131890BB2
:100EB800592F003420002108E3002008E200080030
:100EC80020002108E5002008E4000800200021088F
:100ED800E7002008E6000800803022009800FF3074
:100EE80099000800F900790887313227080006348C
:100EF80000340B3400341630210097000800C2304B
:100F08002A0095000800C2302A00910008008B10C2
:0C0F180087310C27080001340800080095
:020000040001F9
:04000E00E421FF3EAC
:00000001FF
