:020000040000FA
:04000000803114280F
:100008007E1480310B1A8B1C0D2886311A268031FC
:1000180012288B190B1C122886311E267E10090007
:1000280080311628F001F101F201F301F401F50124
:10003800F601473084000030850025308531F725EA
:100048007E10200081317C292F302000B300330836
:10005800C00020002E08B4002D08B300AD0A031913
:10006800AE0A33088400340885000008B500350856
:10007800C400440803190800253044060319492818
:1000880044088631092680312D28C201C301C101E7
:10009800522841150130AD070030AE3D2D088400CF
:1000A8002E0885000008303A03194D285B282D08D2
:1000B80084002E0885000008853188258031031CBE
:1000C80098282000C201C3010A302000A000003097
:1000D800A1004308A3004208A2008431BA24803159
:1000E80020002108C3002008C2002D0884002E0823
:1000F80085000008D03EB300FF3003180030B4007C
:100108003308C2073408C33D0130AD070030AE3DA7
:100118002D0884002E088500000885318825803147
:10012800031C98286828411620002E08B4002D08C2
:10013800B300AD0A0319AE0A3308840034088500F9
:100148000008C400003A03197B296C3A0319972860
:10015800143A0319B0282D28411EBF2840088600EC
:100168008701403FBC00413FBD00423FBE00433FC6
:10017800BF000430CD28400886008701403FB30007
:10018800413FB4003308BC003408BD00BE01BF01C4
:100198000230B3003308C007C401C40A4408B300DE
:1001A800B401B335B40DB335B40D7C3033078400D6
:1001B8008430343D8500003FB500013FB600023F62
:1001C800B700033FB80038083F02031DF528370879
:1001D8003E02031DF52836083D02031DF5283508A3
:1001E8003C02031CFF280130B3003308C407083061
:1001F8004406031DD2284308803A803C031D062983
:10020800420844020318112920004408B300B4012D
:100218003308C2023408C33B14292000C201C301B9
:10022800411D2429420843040319352930308631F9
:1002380009268031FF302000C207FF30C33D162950
:1002480042084304031935292030863109268031B4
:10025800FF302000C207FF30C33D42084304031D9E
:1002680028294408B300B4013308BA003408BB0095
:10027800FF302000BA07FF30BB3D3A0A03193B0A9A
:1002880003192D283B0885003A0884008435850D1C
:100298008435850D7C3084078430853D003FA0007F
:1002A800013FA100023FA200033FA3003F08A700AF
:1002B8003E08A6003D08A5003C08A400833163233E
:1002C8008031200020080F39B3003308B9003908FD
:1002D800773E840085300318013E85000008B3008E
:1002E8003308C40044088631092680313C290800B7
:1002F80084319C248131863103268131863116264A
:1003080081318631122681318331B6238131200033
:10031800A001FF30C5004508A100FF3085319625B2
:1003280081318B170B172000A001FF30C50045084D
:10033800A100FF3085319625813184312A2481310D
:1003480020002F08803AC50089304502031DAE29D8
:10035800C4302E020318B6292000A001FF30C500C2
:100368004508BE29FF302000C5004508A000FF3021
:10037800C6004608A100FF3085319625813102303C
:100388007206031D97295D302000AD008530AE0050
:100398000230713E86008701403FAF00413FB00008
:1003A800423FB100433FB200803128208131D6302E
:1003B8002000AD008430AE007408C500C6014508B1
:1003C800AF004608B0008031282081310C30200071
:1003D800AD008530AE007308C500C6014508AF0002
:1003E8004608B000803128208131F1302000AD006E
:1003F8008430AE007608C500C6014508AF0046083F
:10040800B00080312820813127302000AD008530B0
:10041800AE007508C500C6014508AF004608B00023
:1004280080312820813142302000AD008530AE0077
:100438007608B0007508AF0080312820813171300E
:1004480083310F238131F20197292000A901A31FCD
:100458003A2AA009A109A209A309A00A0319A10A15
:100468000319A20A0319A30AA901A90AA71F4B2A5B
:10047800A409A509A609A709A40A0319A50A031925
:10048800A60A0319A70A0130F9007908A90600305D
:10049800AD000030AC000030AB000030AA002308EB
:1004A8002204210420040319942AA801A80AA31BE2
:1004B800692A0130A035A10DA20DA30D890B5E2A72
:1004C8000130F9007908A8075B2A0130AA35AB0D7D
:1004D800AC0DAD0D890B6A2A23082702031D7E2A5D
:1004E80022082602031D7E2A21082502031D7E2AD2
:1004F80020082402031C892A2008A4022108A53BFD
:100508002208A63B2308A73B2A140130A336A20CD5
:10051800A10CA00C890B8A2A0130A802031D692AA4
:1005280029080319A22AAA09AB09AC09AD09AA0A24
:100538000319AB0A0319AC0A0319AD0A2D08A30065
:100548002C08A2002B08A1002A08A00008002000FF
:100558001508F7007708F80095010B19F8010B1139
:10056800022BB4307802031C0D2BF43078020318E8
:100578000D2BF101F201F20A7808F7007708C7009D
:100588000D2B0130F335F40DF50DF60D890BC62A48
:100598001D307802031CE22A2A3078020318E22A66
:1005A8007808F7007108483E8600870177088100BF
:1005B80073140130F7007708F107F52A0E30780236
:1005C800031CF32A153078020318F32A7808F70079
:1005D8007108483E8600870177088100DD2AF2010C
:1005E8000D2B20307106031D0D2B73097406031D96
:1005F800F32A0230F7007708F2000D2B7208003A50
:100608000319B52A013A0319C52A033A03190D2B10
:10061800F32A8B1008002000A2002A2B0A30FA00C7
:100628007A08EA07572B0A30EA02572B0A30FA00F1
:100638007A08E907572B0A30E902572B0A30FA00E3
:100648007A08E807572B0A30E802572B2208033E9E
:10065800860087010108083A0319222B183A031962
:100668001F2B083A0319572B303A0319572B603AB6
:100678000319572B183A03191A2B083A0319572B41
:10068800303A0319572BE03A0319272B103A03196C
:10069800572B383A0319122B083A0319572B183AD3
:1006A8000319172B572B6908FA007A08A000680865
:1006B800FB007B08A1006A088531962508000030F8
:1006C8002000AB000030AA000030A9000030A800CC
:1006D80023082204210420040319AD2BAC01AC0A21
:1006E800A31B822B0130A035A10DA20DA30D890BF0
:1006F800772B0130F9007908AC07742B0130A83545
:10070800A90DAA0DAB0D890B832B23082702031D06
:10071800972B22082602031D972B21082502031D6B
:10072800972B20082402031CA22B2008A4022108CE
:10073800A53B2208A63B2308A73B28140130A33673
:10074800A20CA10CA00C890BA32B0130AC02031D39
:10075800822B2B08A3002A08A2002908A100280838
:10076800A0000800FF3020009B001C08FC3902385C
:100778009C001C1521000E160E303D00A400CF3041
:1007880025009E052C0098013F3097051912EF307F
:10079800F900790821008E052C00991721008C1684
:1007A8000F303D0095003F3025009E052C009B0131
:1007B8003F309A051C12DF30F900790821008C05BA
:1007C8002C009C1721008E160C303D00A50025003A
:1007D8001308F0390C3893009101CF309305DF30BE
:1007E800F900790821008E05080022008C018D018E
:1007F8008E01043021008C0020308D0010308E00D6
:1008080023008E018D018C0124008D018C018E0145
:100818002100951325008C018D018E0137302600AB
:100828008C00F0308D00FF308E003F3027008C00A8
:10083800F0308D00FF308E008B1502303C009000A8
:100848000D30A40014303D009F00080081302200C4
:1008580097007D3021009D0090309E002200171FD8
:10086800322C0000000000000000000021009D1450
:100878009D183C2C1D101B082000A00021001C08FE
:100888002000A100A201A3010030A7000F30A6009C
:10089800FC30A5000030A400823129222000210864
:1008A800AF002008AE000800083023009F009030F9
:1008B8009D0024309E0008309B009C0100302000E1
:1008C800A0000030A1008531CD2584310030200002
:1008D800A0000030A1008531C425843100302000FB
:1008E800A0000030A1008531D6252000EB010800CA
:1008F800013400340034003410340034003400343F
:10090800003401340034003400341034003400342E
:10091800003400340134003400340034103400341E
:10092800003400340034013400340034003410340E
:100938008331F92384318531EF25843186310E26C0
:1009480084318631032684318631162684318631F6
:10095800122684318531E72584318531A3258431F8
:100968008531BA258431843158240800F901FA0107
:100978002000201CC32C2208F9072308FA3D013067
:10098800A235A30D890BC42C0130A136A00C890B0C
:10099800C92C20082104031DBC2C7A08A100790861
:1009A800A000080063346F346D346D3461346E34E4
:1009B80064343A3420342034203420342034203431
:1009C8002034203420342034303478342534303402
:1009D800323478340D340A34003461346434643485
:1009E80072346534733473343A3420342034203408
:1009F800203420342034203420342034203430343F
:100A0800783425343034323478340D340A340034B0
:100A180063346F346D346D3461346E3464345F34F0
:100A280062343A34203420342034203420342034C2
:100A38002034203430347834253430343234783427
:100A48000D340A34003461346434643472346534E7
:100A5800733473345F3462343A34203420342034AD
:100A68002034203420342034203430347834253471
:100A78003034323478340D340A3400346534783400
:100A8800743465346E3464346534643420346134C9
:100A98006434643472346534733473343A342034CF
:100AA8003034783425343034343478340D340A34DE
:100AB80000340D340A3463346F34643465343A34A2
:100AC800203420342034203420342034203420347E
:100AD8002034303478342534303438346C34783435
:100AE8000D340A340034303431343234333434344D
:100AF8003534363437343834393461346234633415
:100B08006434653466340034FA00F9013A307A0204
:100B18000318942D30307A02031C942DF901F90A38
:100B2800790C0800F90079082500910020002008B8
:100B38002C009800200021082C009B0008008B1036
:100B480021001513AB302000A0000230A100853130
:100B5800FD250B16080020006C086D040319080019
:100B68006D088A006C080A00853108002100150804
:100B7800C0391538950020009501F0010B110800C7
:100B8800200021082100A300200020082100A20045
:100B98000800200021082100A500200020082100CD
:100BA800A4000800200021082100A100200020083E
:100BB8002100A0000800F9002000111EE02D79088E
:100BC80023009A000800FF3020009B009A01911032
:100BD80006309C0008006A30210099009A019801AB
:100BE800220096010800640080010131890BF82D6C
:100BF800003420002108ED002008EC0008008030B7
:100C080022009800FF3099000800FA007A08853120
:100C1800DF2508001630210097000800D2302A008E
:100C280095000800D2302A00910008008B10853109
:060C3800AF2508000800D2
:020000040001F9
:04000E00E421FF3EAC
:00000001FF
