:020000040000FA
:1000000080312028080001347E1480310B1A8B1CAB
:100010000D288E31302680311E288B190B1C142898
:100020008031022080311E280B1F1E282100921CC7
:100030001E282000921C1E288E31BF267E1009002B
:1000400080312228803103208031DD00D9308400C6
:1000500087308500A03086000030870026308E3142
:100060005226803140308400003085001D308E31B2
:100070004C268031E93084000030850007308E3115
:100080004C268031203084000130850021308E31B3
:100090004C267E1020008431342C2200CB0021001D
:1000A000C601C70100308E31DD26803116292100BE
:1000B0006903031D872801302000C6070030C73DB3
:1000C0004708803A2200C90080304902031D6B288E
:1000D0000B3020004602031C72280A302000C600A4
:1000E0000030C70020004635A43E86008701403F0F
:1000F0002100E300413FE4008F31A8278031210037
:100100006208E6006108E500813169218031023032
:1001100021006906031DB02801302000C807003007
:10012000C93D4908803A2200C90080304902031DB8
:100130009C28063020004802031CA328053020001C
:10014000C8000030C90020004835BA3E860087014B
:10015000403F2100E100413FE2008631232680310B
:1001600021006908031DB7288531812580310330BE
:1001700021006906031D44298531812580314429E8
:1001800021006903031DE128FF302000C607FF306E
:10019000C73DC71FCD28C601C7014635A43E86000E
:1001A0008701403F2100E300413FE4008F31A82751
:1001B000803121006208E6006108E5008131692193
:1001C0008031023021006906031DB028FF30200075
:1001D000C807FF30C93DC91FEF28C801C90148350C
:1001E000BA3E86008701403F2100E100413FAC2834
:1001F0008F317E27803144298F3156278031442921
:100200002100ED01FF302200C90049082100EC0067
:10021000EB012730C8008830C9008E31F4268031C8
:100220002100EA0144292000D301442922004B087F
:10023000033E860087010108083A03190029183A8D
:100240000319FC28083A03194429303A03194429B0
:10025000603A03194429183A0319F828083A03198F
:100260004429303A03194429E03A03191329103A72
:1002700003194429383A03195728083A031944291D
:10028000183A0319C028442921006C082200C9002B
:1002900049082100C6006B082200CA004A08210054
:1002A000C7006D088E31DD26803106302200CA007D
:1002B0001330C900AD30890B5B29C90B5B29CA0B10
:1002C0005B2900322100C601C70100308E31DD26D6
:1002D000080000302100D5000030D4000330D300E6
:1002E000E830D200F4302200C1000130C2000030FA
:1002F000C3000030C40021006308C6006408C700C2
:10030000890D893B8909C800C9000030CD00003043
:10031000CC001230CB005C30CA0087314C278131D1
:10032000210046082200C107210047082200C23DE3
:10033000210048082200C33D210049082200C43D95
:1003400044082100D900220043082100D8002200DF
:1003500042082100D700220041082100D600843144
:1003600089248131210052086502EE005308663B62
:10037000EF006508D2006608D300890D893B890922
:10038000D400D5000230C6000030C7006608C9009E
:100390006508C80085312F258131210046082200DB
:1003A000C100210047082200C2000030C21BFF30FC
:1003B000C300C40021006E082200C50021006F08A0
:1003C0002200C600C701C8010830C535C60DC70DDB
:1003D000C80D890BE5294508C1074608C23D4708F5
:1003E000C33D4808C43D44082100D9002200430809
:1003F0002100D800220042082100D7002200410835
:100400002100D6008231C922813121005308E80041
:100410005208E7006808803A2200C100813041029A
:10042000031D152A003021006702031C1C2AFF301F
:100430002100E7000030E8002100E81F212AE70141
:10044000E801670822009900080000302000A3009E
:100450000030A2000330A100E830A000F430B40066
:100460000130B5000030B6000030B7003008F000B1
:100470003108F100890D893B8909F200F300003051
:10048000F7000030F6001230F5005C30F4008731E0
:100490007C27823170082000B4077108B53D7208CE
:1004A000B63D7308B73D3708A7003608A6003508E3
:1004B000A5003408A4008431DC2482312000200807
:1004C00032022100EE0020002108333B2100EF0022
:1004D00020003208A0003308A100890D893B89095A
:1004E000A200A3000230F0000030F1003308F30056
:1004F0003208F2008531D225823170082000B40024
:100500007108B5000030B51BFF30B600B700210000
:100510006E082000B80021006F082000B900BA0161
:10052000BB010830B835B90DBA0DBB0D890B922A45
:100530003808B4073908B53D3A08B63D3B08B73D21
:100540003708A7003608A6003508A5003408A4001F
:1005500083314B23823120002108BD002008BC00DC
:100560003D08803AB40081303402031DB92A0030BE
:100570003C02031CC02AFF302000BC000030BD003C
:100580002000BD1FC52ABC01BD013C082200990006
:1005900008002100DC01D51FDA2AD209D309D409C9
:1005A000D509D20A0319D30A0319D40A0319D50AA3
:1005B000DC01DC0AD91FEB2AD609D709D809D909E9
:1005C000D60A0319D70A0319D80A0319D90A013020
:1005D000DA005A08DC060030E0000030DF000030AE
:1005E000DE000030DD0055085404530452040319A2
:1005F000342BDB01DB0AD51B092B0130D235D30D9F
:10060000D40DD50D890BFE2A0130DA005A08DB071C
:10061000FB2A0130DD35DE0DDF0DE00D890B0A2BE5
:1006200055085902031D1E2B54085802031D1E2B8A
:1006300053085702031D1E2B52085602031C292B78
:100640005208D6025308D73B5408D83B5508D93B2B
:100650005D140130D536D40CD30CD20C890B2A2B67
:100660000130DB02031D092B5C080319422BDD0955
:10067000DE09DF09E009DD0A0319DE0A0319DF0AD2
:100680000319E00A6008D5005F08D4005E08D300B3
:100690005D08D20008002000A901A31F5C2BA0095F
:1006A000A109A209A309A00A0319A10A0319A20A10
:1006B0000319A30AA901A90AA71F6D2BA409A5095B
:1006C000A609A709A40A0319A50A0319A60A03196A
:1006D000A70A0130F9007908A9060030AD00003002
:1006E000AC000030AB000030AA0023082204210433
:1006F00020040319B62BA801A80AA31B8B2B0130D9
:10070000A035A10DA20DA30D890B802B0130F9009E
:100710007908A8077D2B0130AA35AB0DAC0DAD0DC6
:10072000890B8C2B23082702031DA02B22082602ED
:10073000031DA02B21082502031DA02B2008240245
:10074000031CAB2B2008A4022108A53B2208A63BD2
:100750002308A73B2A140130A336A20CA10CA00C3D
:10076000890BAC2B0130A802031D8B2B2908031920
:10077000C42BAA09AB09AC09AD09AA0A0319AB0A33
:100780000319AC0A0319AD0A2D08A3002C08A20016
:100790002B08A1002A08A000080020001508F0007E
:1007A0007008F10095010B19F1010B11272CB430E1
:1007B0007102031C322CF43071020318322CD70161
:1007C000D801D80A7108F00070082200A000322C6D
:1007D0000130D935DA0DDB0DDC0D890BE92B1D302D
:1007E0007102031C062C2A3071020318062C7108B2
:1007F000F0005708213E8600013087007008810014
:1008000059140130F0007008D7071A2C0E3071020D
:10081000031C182C153071020318182C7108F000F5
:100820005708213E86000130870070088100012CA6
:10083000D801322C20305706031D322C59095A0694
:10084000031D182C0230F0007008D800322C580814
:10085000003A0319D72B013A0319E82B033A03197D
:10086000322C182C8B100800863167268431210029
:10087000C601C701FF308E31DD26843106302200EB
:10088000CD001330CC00AD30890B442CCC0B442C64
:10089000CD0B442C00322100C601C70100308E313F
:1008A000DD2684312100C601C701FF308E31DD26EF
:1008B000843106302200CD001330CC00AD30890BDE
:1008C0005F2CCC0B5F2CCD0B5F2C00322100C601BE
:1008D000C70100308E31DD2684312100C601C701F9
:1008E000FF308E31DD26843106302200CD001330FA
:1008F000CC00AD30890B7A2CCC0B7A2CCD0B7A2C1A
:1009000000322100C601C70100308E31DD2684315E
:10091000372C00302100DE000030DD000030DC002C
:100920000030DB0055085404530452040319D32C3F
:10093000DF01DF0AD51BA82C0130D235D30DD40D31
:10094000D50D890B9D2C0130DA005A08DF079A2C4F
:100950000130DB35DC0DDD0DDE0D890BA92C5508D2
:100960005902031DBD2C54085802031DBD2C530809
:100970005702031DBD2C52085602031CC82C5208F6
:10098000D6025308D73B5408D83B5508D93B5B14D3
:100990000130D536D40CD30CD20C890BC92C0130C4
:1009A000DF02031DA82C5E08D5005D08D4005C089A
:1009B000D3005B08D200080000302000AB000030FC
:1009C000AA000030A9000030A80023082204210456
:1009D00020040319262DAC01AC0AA31BFB2C01300B
:1009E000A035A10DA20DA30D890BF02C0130FC0048
:1009F0007C08AC07ED2C0130A835A90DAA0DAB0D74
:100A0000890BFC2C23082702031D102D2208260227
:100A1000031D102D21082502031D102D200824027E
:100A2000031C1B2D2008A4022108A53B2208A63B7D
:100A30002308A73B28140130A336A20CA10CA00C5C
:100A4000890B1C2D0130AC02031DFB2C2B08A300CD
:100A50002A08A2002908A1002808A00008002100F7
:100A6000CC01C71F3A2DC609C709C60A0319C70A10
:100A7000CC01CC0AC91F452DC809C909C80A0319E8
:100A8000C90A0130CA004A08CC06CD01CE01460889
:100A900047040319742DCB01CB0AC71B592D013014
:100AA000C635C70D890B502D0130CA004A08CB0747
:100AB0004D2D0130CD35CE0D890B5A2D47084902F9
:100AC000031D642D46084802031C6B2D4608C8020E
:100AD0004708C93B4D140130C736C60C890B6C2D35
:100AE0000130CB02031D592D4C0803197C2DCD0973
:100AF000CE09CD0A0319CE0A4E08C7004D08C6001C
:100B000008002100C601C701FF308E31DD26853186
:100B100003302100CB008A30CA005530890B8E2D5E
:100B2000CA0B8E2DCB0B8E2D00322100C601C701C2
:100B300000308E31DD26853103302100CB008A3034
:100B4000CA005530890BA22DCA0BA22DCB0BA22DAA
:100B500000322100C601C701FF308E31DD2685310C
:100B600003302100CB008A30CA005530890BB62DE6
:100B7000CA0BB62DCB0BB62D00322100C601C70122
:100B800000308E31DD26853103302100CB008A30E4
:100B9000CA005530890BCA2DCA0BCA2DCB0BCA2DE2
:100BA00000320800F601F11FDC2DF009F109F00A0E
:100BB0000319F10AF601F60AF31FE72DF209F3090A
:100BC000F20A0319F30A0130F4007408F606F7017B
:100BD000F801700871040319162EF501F50AF11BCE
:100BE000FB2D0130F035F10D890BF22D0130F400B1
:100BF0007408F507EF2D0130F735F80D890BFC2D42
:100C000071087302031D062E70087202031C0D2E5C
:100C10007008F2027108F33B77140130F136F00CE2
:100C2000890B0E2E0130F502031DFB2D76080319EA
:100C30001E2EF709F809F70A0319F80A7808F100D7
:100C40007708F000080021006108C6006208C700AC
:100C5000C801C9010030CD000030CC000030CB000D
:100C60006030CA0087314C27863121004908D50001
:100C70004808D4004708D3004608D2000030D90005
:100C80000F30D8004230D7004030D6008231C92220
:100C9000863121005308E5005208E4006508803AD7
:100CA000E30081306302031D572E00306402031CF1
:100CB0005E2EFF302100E4000030E5002100E51F3A
:100CC000632EE401E5016408280096000800FF3067
:100CD00020009B001C08FC3902389C001C152100D8
:100CE0000E160E303D00A400CF3025009E052C00CE
:100CF00098013F3097051916EF302100C6004608CD
:100D00008E052C00991721008C160F303D009500A0
:100D10003F3025009E052C009B013F309A051C1694
:100D2000DF302100C60046088C052C009C172100EE
:100D30008E160C303D00A50025001308F0390C3844
:100D40009300FF30910030309304DF302100C60063
:100D500046088E0508002100E901CC01CD01B43020
:100D60002100CA004A08C600E630CB004B08C70085
:100D700000308E31DD26863182302100CA00DD3020
:100D8000890BC02ECA0BC02E00322100C601C7013C
:100D900000308E31DD26863182302100CA00DD3000
:100DA000890BD02ECA0BD02E003201302100CC0787
:100DB0000030CD3D4D08803ACA0080304A02031D04
:100DC000E32E05304C02031CAF2E2000D301080097
:100DD00022008C018D018E01043021008C00303006
:100DE0008D0050308E00403023008E0010308D007A
:100DF0008C0124008D018C018E01210095132500AA
:100E00008C018D018E01373026008C00F0308D0072
:100E1000FF308E003F3027008C00F0308D00FF3017
:100E20008E008B1502303C0090000D30A400143071
:100E30003D009F00080020005D080319492FDD01D7
:100E40004835BA3E8600870116000104031D3B2F7A
:100E50004635A43E86008701403FB000413FB100C7
:100E60008731AB27873120002F08B3002E08B2004E
:100E70008231252208000030B000B1008731AB2755
:100E8000873120002F08B3002E08B20082312522BE
:100E90000800DD01DD0A282F00302100D1000030DC
:100EA000D0000030CF000030CE00461C5F2F4A0833
:100EB000CE074B08CF3D4C08D03D4D08D13D013009
:100EC000CA35CB0DCC0DCD0D890B602F0130C93645
:100ED000C80CC70CC60C890B672F49084804470487
:100EE0004604031D552F5108C9005008C8004F087B
:100EF000C7004E08C60008000030FB000030FA00B2
:100F00000030F9000030F800701C8E2F7408F807CC
:100F10007508F93D7608FA3D7708FB3D0130F43558
:100F2000F50DF60DF70D890B8F2F0130F336F20C0E
:100F3000F10CF00C890B962F730872047104700485
:100F4000031D842F7B08F3007A08F2007908F10072
:100F50007808F00008008130220097007D302100E1
:100F60009D0090309E002200171FB32F000000004C
:100F700000000000000021009D149D18BD2F1D10D1
:100F80001B082000A00021001C082000A100A201D5
:100F9000A3010030A7000F30A600FC30A5000030F0
:100FA000A40083314B2320002108AF002008AE00AD
:100FB0000800063400340B340034003400341E348E
:100FC000003432340034463400345A3400346E3441
:100FD000003482340034A0340034BE340034DC34B5
:100FE0000034FA34003400340034323400346434D1
:100FF000003478340034823400348C3400340A34C1
:1010000020344634723465347134753465346E344A
:10101000633479342034733465346C346534633428
:1010200074346534643400340A34203463347534E1
:101030007234723465346E347434203473346534ED
:101040006C346534633474346534643400340A3485
:10105000203472346534733465347434203473341A
:0C10600065346C3465346334743400343F
:101C60008B108E31A9260800C2302A00910008008E
:101C7000C2302A00950008001630210097000800A5
:101C8000803022009800FF30990008002100C70032
:101C900047088E319F260800640080010131890BBE
:101CA0004D2E0034FE0012001E00FE0B532E003499
:101CB0006A30210099009A019801220096010800DB
:101CC000FF3020009B009A01911006309C00080014
:101CD000210047082000CD00210046082000CC004C
:101CE0000800210047082000D100210046082000FC
:101CF000D0000800210047082000CF00210046083E
:101D00002000CE000800210047082000CB00210061
:101D100046082000CA000800210047082000C5002E
:101D2000210046082000C400080021001508C03921
:101D30001538950020009501D5010B1108002100F0
:101D4000C6002000111EA12E2100460823009A0083
:101D5000080020004A084B04031908004B088A00B9
:101D60004A080A008E3108008B1021001513CD306F
:101D7000C6000330C7008E3183260B1608002000F2
:101D80009210440845040319080045088A004408D5
:101D90000A008E31080004302800960095012000CA
:101DA0009210210092141B30C6000730C7008E31FC
:101DB0008C2616302800970008002100C90047082B
:101DC000031DE42E8E16E82EDF30C80048088E056D
:101DD000470925009100210049082C0098002100A6
:101DE00046082C009B000800CA302100CA004A089F
:101DF000CD0021004908CB004808CA00C80A0319D1
:101E0000C90A4A0884004B0885000008CC004C0829
:101E1000CE004E08031908004E088E3146268E313A
:101E2000F92E8631E8268F318E3158268F318E314A
:101E30003C268F318E3140268F318E3134268F31C2
:101E40008E3138268F318E31CB268F318E31602600
:101E50008F318E31B4268F318E3195268F318F316F
:101E600032270800083023009F0090309D00243066
:101E70009E0008309B009C0100302100C60000300D
:101E8000C7008E3171268F3100302100C60000302E
:101E9000C7008E317A268F3100302100C600003015
:101EA000C7008E3168262000D60108002100E90114
:101EB000E90AC601FF30CF004F08C70000308E315D
:101EC000DD268F3106302100D0001330CF00AD3039
:101ED000890B682FCF0B682FD00B682F00322100A1
:101EE000C601C70100308E31DD268F31143021004C
:101EF000C8008830C9008E31F42608000230210065
:101F0000CF004F08E900C601FF30CF004F08C700DF
:101F1000FF308E31DD268F3106302100D0001330A6
:101F2000CF00AD30890B922FCF0B922FD00B922F79
:101F300000322100C601C70100308E31DD268F310D
:101F4000FF302100C8008730C9008E31F426080018
:101F50008130220097007D3021009D0090309E004E
:101F60002200171FB02F000000000000000000003A
:101F700021009D149D18BA2F1D101B08D2001C08AB
:101F8000D300D401D5010030D9000F30D800FC3087
:101F9000D7000030D6008231C92221005308E20068
:101FA0005208E100080003302100CA004A08E90095
:101FB000C601C701FF308E31DD268F31023021008E
:101FC000CB004530CA00A930890BE42FCA0BE42F9F
:101FD000CB0BE42F00322100C601C70100308E3147
:101FE000DD268F3103302100CB008A30CA00553006
:101FF000890BF82FCA0BF82FCB0BF82F00320800F3
:020000040001F9
:04000E00E421FF3EAC
:00000001FF
