:020000040000FA
:04000000803114280F
:100008007E1480310B1A8B1C0D2885318E2580318A
:1000180012288B190B1C1228853192257E10090095
:1000280080311628F001F101F201F301F401F50124
:10003800F6013F308400003085000E3085315525AB
:100048008031A0308400003085002130853155256D
:100058007E1020008331C12B2000BD00A001A1012A
:100068000030853105258031B028A001A10100307C
:1000780085310525803120004603031D642897300B
:10008800440203184D2844081E3EBB003B08C40028
:1000980054289630BB003B08C40082319922803135
:1000A8007E302000AB008530AC004408BB00BC01AA
:1000B8003B08AD003C08AE008031FF208031DE28CF
:1000C800023046060319DE28823199228031DE2863
:1000D8004603031D64289730440203188728440800
:1000E800E23EBB003B08C4007E30AB008530AC006C
:1000F8004408BB00BC013B08AD003C08AE008031A1
:10010800FF208031DE289630BB003B08C4006828F9
:10011800843177248031DE28C9018230BB003B0856
:10012800C800FF30BB003B08C7000230BB003B08DB
:10013800C600DE28C901FF30BB003B08C800C70164
:10014800F630AB008430AC008031FF2080312000D5
:10015800C601DE28C401DE2820003D08033E8600D3
:1001680087010108083A03199E28183A03199028AC
:10017800083A0319DE28303A0319DE28603A0319D1
:10018800DE28183A03198C28083A0319DE28303A71
:100198000319DE28E03A0319AE28103A0319DE28BD
:1001A800383A03193928083A0319DE28183A031986
:1001B8006C28DE2820004808BB003B08A000470840
:1001C800BC003C08A100490885310525803106306E
:1001D8002000BC001330BB00AD30890BF128BB0BED
:1001E800F128BC0BF12800322000A001A101003049
:1001F8008531052508002D302000AF002F08B300F9
:1002080020002C08B0002B08AF00AB0A0319AC0A79
:100218002F088400300885000008B1003108B800B4
:10022800380803190800253038060319202938082A
:100238008531792580310429B4012C08B0002B08B8
:10024800AF00AB0A0319AC0A2F08840030088500F8
:100258000008B800003A0319B129643A031938298B
:100268000D3A031938290429330886008701403FCD
:10027800B600413FB7000230AF002F08B307B71FE1
:100288004E290330AF002F08B404B609B709B60ADF
:100298000319B70AB801B80A3808AF00B001AF357A
:1002A800B00D29302F0784008530303D8500003F90
:1002B800B100013FB20032083702031D6529310839
:1002C8003602031C6F290130AF002F08B80705302C
:1002D8003806031D502934080339031977292D30AE
:1002E80085317925803120003808AF002F08B50006
:1002F800FF302000AF002F08B507350A031904297D
:100308000A30A7000030A8003508AF00B001AF35AB
:10031800B00D29302F0784008530303D8500003F1F
:10032800A000013FA1003708A3003608A2008331CE
:100338005B23803120002108AA002008A90084310D
:100348001F24803120002708303EB1003108B80052
:1003580038088531792580317C2908002000A901D9
:10036800A31FC329A009A109A209A309A00A031967
:10037800A10A0319A20A0319A30AA901A90AA71F16
:10038800D429A409A509A609A709A40A0319A50A35
:100398000319A60A0319A70A0130F9007908A90662
:1003A8000030AD000030AC000030AB000030AA00D7
:1003B800230822042104200403191D2AA801A80ADD
:1003C800A31BF2290130A035A10DA20DA30D890BA5
:1003D800E7290130F9007908A807E4290130AA358E
:1003E800AB0DAC0DAD0D890BF32923082702031DB6
:1003F800072A22082602031D072A21082502031DB1
:10040800072A20082402031C122A2008A402210813
:10041800A53B2208A63B2308A73B2A140130A33694
:10042800A20CA10CA00C890B132A0130A802031DF1
:10043800F229290803192B2AAA09AB09AC09AD0925
:10044800AA0A0319AB0A0319AC0A0319AD0A2D0845
:10045800A3002C08A2002B08A1002A08A00008006D
:1004680020001508F7007708F80095010B19F80126
:100478000B118C2AB4307802031C972AF4307802C6
:100488000318972AF101F201F20A7808F7007708B1
:100498002100A000972A0130F335F40DF50DF60D73
:1004A800890B502A1D307802031C6C2A2A307802E6
:1004B80003186C2A7808F7007108A13E86008701A6
:1004C8007708810073140130F7007708F1077F2A55
:1004D8000E307802031C7D2A1530780203187D2A15
:1004E8007808F7007108A13E860087017708810027
:1004F800672AF201972A20307106031D972A73098B
:100508007406031D7D2A0230F7007708F200972A47
:100518007208003A03193E2A013A03194F2A033A8E
:100528000319972A7D2A8B1008002000A001A10139
:10053800FF308531052582310330FB008A30FA000F
:100548005630890BA52AFA0BA52AFB0BA52A2000F1
:10055800A001A10100308531052582310330FB005F
:100568008A30FA005630890BB72AFA0BB72AFB0BE8
:10057800B72A2000A001A101FF308531052582316D
:100588000330FB008A30FA005630890BC92AFA0B6F
:10059800C92AFB0BC92A2000A001A101003085311E
:1005A800052582310330FB008A30FA005630890B6A
:1005B800DB2AFA0BDB2AFB0BDB2A0800FF302000C2
:1005C8009B001C08FC3902389C001C1521000E16E3
:1005D8000E303D00A400CF3025009E052C00980168
:1005E8003F3097051916EF30F900790821008E057C
:1005F8002C00991721008C160F303D0095003F30D4
:1006080025009E052C009B013F309A051C16DF3003
:10061800F900790821008C052C009C1721008E1602
:100628000C303D00A50025001308F0390C38930064
:10063800FF30910030309304DF30F9007908210051
:100648008E0508002000A201A3012000A001FF30B0
:10065800FA007A08A100FF30853105258331823000
:10066800FA00DE30890B362BFA0B362B2000A0015E
:10067800A10100308531052583318230FA00DE3052
:10068800890B442BFA0B442B01302000A2070030C1
:10069800A33D2308803AFA0080307A02031D562BC6
:1006A80005302202031C292B2000C4010800200069
:1006B800A501A6012008210403198B2BA401A40A73
:1006C800A11B702B0130A035A10D890B672B0130C0
:1006D800F9007908A407642B0130A535A60D890B0C
:1006E800712B21082302031D7B2B20082202031CE7
:1006F800822B2008A2022108A33B25140130A13631
:10070800A00C890B832B0130A402031D702B260833
:10071800A1002508A000080022008C018D018E018F
:10072800043021008C0020308D0010308E00230012
:100738008E018D018C0124008D018C018E01210018
:10074800951325008C018D018E01373026008C0011
:10075800F0308D00FF308E003F3027008C00F030E5
:100768008D00FF308E008B1502303C0090000D305C
:10077800A40014303D009F0008008431C324833155
:1007880085317325833185318A25833185318625E5
:1007980083318231E22283318B170B178331262371
:1007A80083318331F123833120002F08803ABE0042
:1007B80089303E02031DE22BC4302E020318E72BBA
:1007C80084314C24833102307206031DD52B7130DD
:1007D800803130208331F201D52B813022009700FF
:1007E8007D3021009D0090309E002200171FF92BBC
:1007F8000000000000000000000021009D149D186A
:10080800032C1D101B082000A00021001C0820003C
:10081800A100A201A3010030A7000F30A600FC3000
:10082800A5000030A4008131B22120002108AF00CA
:100838002008AE0008002000270828040319472CC8
:10084800FB01FB0AA81B322C0130A735A80D890B28
:10085800292C0130FA007A08FB07262C28082A02DE
:10086800031D382C27082902031C3E2C2708A9023F
:100878002808AA3B0130A836A70C890B3F2C013069
:10088800FB02031D322C2A08A8002908A70008002B
:10089800FF30FA007A082000A000FF30FB007B0838
:1008A800A10000308531052584310230FB00453038
:1008B800FA00AA30890B5E2CFA0B5E2CFB0B5E2C1F
:1008C8002000A001A10100308531052584310330C5
:1008D800FB008A30FA005630890B702CFA0B702C0A
:1008E800FB0B702C08002000C601C60AA001FF30CF
:1008F800B9003908A100FF3085310525843106305B
:100908002000BA001330B900AD30890B892CB90B1F
:10091800892CBA0B892C00322000A001A1010030DB
:10092800853105258431E1302000AB008430AC00EE
:100938008031FF200800083023009F0090309D0080
:1009480024309E0008309B009C0100302000A0004D
:100958000030A10085316725843100302000A000D7
:100968000030A10085316125843100302000A000CD
:100978000030A10085316D252000CA0108008331AF
:100988009023843185314D25843185318225843108
:1009980085317325843185318A25843185318625D1
:1009A800843185314525843185311225843185315D
:1009B8003325843184319F2408000A342034463496
:1009C800723465347134753465346E346334793413
:1009D8002034733465346C3465346334743465346A
:1009E800643400340A342034723465347334653422
:1009F80074342034733465346C346534633474343B
:100A08000034F900200021092500910079082C0004
:100A18009800200020082C009B0008008B10210063
:100A2800151334302000A0000230A10085315B2569
:100A38000B16080020004D084E04031908004E0844
:100A48008A004D080A0085310800013400340A3450
:100A5800003464340034E83403341034273421007B
:100A68001508C0391538950020009501F0010B11C3
:100A78000800F9002000111E3E2D790823009A0075
:100A88000800FF3020009B009A01911006309C005E
:100A980008006A30210099009A0198012200960105
:100AA8000800640080010131890B562D00342000B4
:100AB8002108CE002008CD00080020002108D2001F
:100AC8002008D100080020002108D4002008D30005
:100AD800080020002108D0002008CF00080080303E
:100AE80022009800FF3099000800FA007A08853142
:100AF8003D250800253464340A34003416302100BA
:100B080097000800D2302A0095000800D2302A0049
:0E0B1800910008008B1085311E250800080092
:020000040001F9
:04000E00E421FF3EAC
:00000001FF
