:020000040000FA
:1000000080312728080008007E1480318B1A0B1DD0
:100010000D288F319827803125280B1A8B1C142826
:100020008F310F27803125288B190B1C1B2880311D
:100030000220803125280B1F25282100921C25280D
:100040002000921C25288F318C277E1009008031DA
:1000500029281E30840086308500A03086000030BC
:10006000870028308F3159278031EF01C830840054
:100070000030850010308F315327803120308400CC
:100080000130850021308F3153277E1020008231CE
:10009000A12AE600F201F30100308731E527803123
:1000A0003D2920006F03031D85280130FA07003029
:1000B000FB3D7B08803AED0080306D02031D622815
:1000C0000B307A02031C6C280A30FA000030FB0067
:1000D0008431762480316F288631E02680317A356C
:1000E000A53E86008701403F2000B500413FB60095
:1000F0008531F12580313408B8003308B7008131EB
:10010000842180318331CE23803102306F06031D7C
:10011000B72801302100E4070030E53D6508803A4A
:100120002000ED0080306D02031D9928063021006B
:100130006402031CA42805302100E4000030E5001F
:10014000843176248031A7288631E0268031210051
:100150006435BB3E86008701403F2000B300413F2D
:10016000B40083316F2380318331CE2380316F0817
:10017000031DBD28843176248031033020006F06B2
:10018000031D6B298431762480316B2920006F0395
:10019000031DEF28FF30FA07FF30FB3DFB1FD62879
:1001A000FA01FB01843176248031D9288731632715
:1001B00080317A35A53E86008701403F2000B5009A
:1001C000413FB6008531F12580313408B80033084D
:1001D000B7008131842180318331CE2380310230D8
:1001E0006F06031DB728FF302100E407FF30E53D0F
:1001F000E51F0029E401E5018431762480310329DB
:1002000087316327803121006435BB3E860087013A
:10021000403F2000B300413FB02886314626803160
:100220006B298631962680316B29E401E50164351E
:10023000BB3E86008701403F2000B300413FB40031
:1002400083316F2380318631BC2680316B29FA01DE
:10025000FB017A35A53E86008701403F2000B500AE
:10026000413FB6008531F12580313408B8003308AC
:10027000B700813184218031232921006608033EA3
:10028000860087010108083A03196B29183A0319F7
:100290001129083A03196B29303A03196B29603A7E
:1002A00003192729183A03190D29083A03196B294C
:1002B000303A03196B29E03A03191529103A03194A
:1002C0006B29383A03195128083A03196B29183A4F
:1002D0000319C6286B29F201F30100308731E527A5
:1002E000803106302000EE001330ED00AD30890B78
:1002F0007729ED0B7729EE0B77290032F201F30114
:1003000000308731E52708000030A7000030A60044
:100310000330A500E830A400F430B9000130BA0081
:100320000030BB000030BC003508F2003608F30096
:10033000890D893B8909F400F5000030F90000308F
:10034000F8001230F7005C30F6008531C2258131AB
:100350007208B9077308BA3D7408BB3D7508BC3D07
:100360003C08AB003B08AA003A08A9003908A800DD
:1003700082312022813124083702C1002508383B10
:10038000C2003708A4003808A500890D893B8909F7
:10039000A600A7000230F2000030F3003808F50094
:1003A0003708F4008431252481317208B9007308BC
:1003B000BA000030BA1BFF30BB00BC004108BD00D2
:1003C0004208BE000030BE1BFF30BF00C000083036
:1003D000BD35BE0DBF0DC00D890BE8293D08B9071D
:1003E0003E08BA3D3F08BB3D4008BC3D3C08AB0061
:1003F0003B08AA003A08A9003908A8008231202247
:1004000081312508C4002408C3004408803AB9009B
:1004100081303902031D0E2A00304302031C152AC5
:10042000FF302000C3000030C4002000C41F1A2A7F
:10043000C301C4014308B90039082100CF000800F6
:10044000AE01A71F302AA409A509A609A709A40A75
:100450000319A50A0319A60A0319A70AAE01AE0AD1
:10046000AB1F412AA809A909AA09AB09A80A0319BF
:10047000A90A0319AA0A0319AB0A0130AC002C0817
:10048000AE060030B2000030B1000030B0000030E5
:10049000AF00270826042504240403198A2AAD0185
:1004A000AD0AA71B5F2A0130A435A50DA60DA70D27
:1004B000890B542A0130AC002C08AD07512A0130B9
:1004C000AF35B00DB10DB20D890B602A27082B0294
:1004D000031D742A26082A02031D742A25082902EE
:1004E000031D742A24082802031C7F2A2408A8025A
:1004F0002508A93B2608AA3B2708AB3B2F1401304F
:10050000A736A60CA50CA40C890B802A0130AD02DD
:10051000031D5F2A2E080319982AAF09B009B109F3
:10052000B209AF0A0319B00A0319B10A0319B20AD2
:100530003208A7003108A6003008A5002F08A40043
:1005400008008731032782318F31472782318F316D
:10055000132782318F311727823185311725823158
:100560008731442782317A35A53E86008701403F96
:100570002000B500413FB6008531F12582313408B5
:10058000B8003308B7008131842182316435BB3E25
:1005900086008701403F2000B300413FB400833113
:1005A0006F2382318B170B1785315B2582318531A3
:1005B000F125823134082100E900200033082100B0
:1005C000E8006908803AE70089306702031DEA2ADB
:1005D000C43068020318EF2A86316E2682317A35DC
:1005E000A53E86008701403F2000B500413FB60090
:1005F000210069082000B800210068082000B70029
:1006000081318421823102305306031DD72AD23032
:100610008031492082312100D301D72AE03075058D
:10062000A3000F307605A40000308B1B0130A5001D
:1006300024087606031D1E2B23087506031D0800DB
:100640008B137608F3007508F20087319D278331FC
:100650001513151595162000A601750823009100A5
:1006600076089200200026357707A0002008860033
:100670008701010823009300200026357707A0009A
:10068000200886008701403FA100413FA2002208C8
:10069000230094001F3020002606031D512B230049
:1006A0009512553023009600AA309600951400004C
:1006B00000000130F5070030F63D01302000A000B9
:1006C0002008A60720302602031C2D2B230015111D
:1006D0002000250C031C8B1303188B17080033080C
:1006E000F2003408F300890D893B8909F400F50014
:1006F0000030F9000030F8000030F7006030F600FC
:100700008531C22583317508A7007408A6007308D7
:10071000A5007208A4000030AB000F30AA004230E0
:10072000A9004030A8008231202283312508B7007B
:100730002408B6003708803AB50081303502031D21
:10074000A32B00303602031CAA2BFF302000B6007A
:100750000030B70020003708803AB50080303502FD
:10076000031DB42B443036020318BB2B4430200049
:10077000B6000030B7008B13200036088F314227B7
:100780008331200033083404031DCA2B2100C70124
:10079000C70ACC2B2100C7018B1708002000EB01F2
:1007A000AB01AC010130A7002708EB0720306B023A
:1007B000031CD02BEC01FF307A05A70000307B052D
:1007C000A80000302704AB0034302804AC0001300E
:1007D000A7002708EC07FF30210064052000A700D0
:1007E0000030210065052000A80000302704A90082
:1007F00034302804AA006C352B3E86008701290876
:10080000C03F2A08C13F0130A7002708EC0700308D
:10081000210047042000A7003430A8006C352B3E8F
:10082000860087012708C03F2808C13F0130A70084
:100830002708EC07E030F5000F30F6002B30A7005A
:100840002708F70083310E230800A101F31F2F2C86
:10085000F209F309F20A0319F30AA101A10AF51F2B
:100860003A2CF409F509F40A0319F50A0130F600E7
:100870007608A106A201A301720873040319692C6A
:10088000A001A00AF31B4E2C0130F235F30D890BA9
:10089000452C0130F6007608A007422C0130A23525
:1008A000A30D890B4F2C73087502031D592C720878
:1008B0007402031C602C7208F4027308F53B2214C6
:1008C0000130F336F20C890B612C0130A002031DBC
:1008D0004E2C21080319712CA209A309A20A03199D
:1008E000A30A2308F3002208F2000800B430F6003F
:1008F0007608F200E630F7007708F3000030873121
:10090000E52784310330F7008A30F6005630890B32
:10091000872CF60B872CF70B872CF201F3010030A4
:100920008731E52784310330F7008A30F6005630EE
:10093000890B982CF60B982CF70B982CB430F600FA
:100940007608F200E630F7007708F30000308731D0
:10095000E52784310330F7008A30F6005630890BE2
:10096000AF2CF60BAF2CF70BAF2CF201F3010030DC
:100970008731E52784310330F7008A30F60056309E
:10098000890BC02CF60BC02CF70BC02C08002000E4
:100990001508F0007008F10095010B19F1010B1119
:1009A000092DB4307102031C152DF43071020318A7
:1009B000152DD201D301D30A152D0130D435D50D13
:1009C000D60DD70D890BDE2C1D307102031CF22CC5
:1009D0002A3071020318F22C54140130F000700810
:1009E000D207FC2C0E307102031CFA2C1530710258
:1009F000031CED2CD301152D20305206031D152D9F
:100A000054095506031DFA2C0230F0007008D3007B
:100A1000152D21005308003A0319D12C013A03196E
:100A2000DD2C033A0319152DFA2C8B100800FF302A
:100A300020009B001C08FC3902389C001C1521007A
:100A40000E160E303D00A400CF3025009E052C0070
:100A500098013F3097051916EF30F2007208210017
:100A60008E052C00991721008C160F303D00950043
:100A70003F3025009E052C009B013F309A051C1637
:100A8000DF30F200720821008C052C009C17210039
:100A90008E160C303D00A50025001308F0390C38E7
:100AA0009300FF30910030309304DF30F200720881
:100AB00021008E0508002000EF01F801F901B43093
:100AC000F6007608F200E630F7007708F300003011
:100AD0008731E52785318230F600DE30890B6E2DB7
:100AE000F60B6E2DF201F30100308731E5278531D9
:100AF0008230F600DE30890B7B2DF60B7B2D01302A
:100B0000F8070030F93D7908803AF6008030760227
:100B1000031D8C2D05307802031808005F2D22007C
:100B20008C018D018E01043021008C0030308D004D
:100B300050308E00403023008E0010308D008C012C
:100B400024008D018C018E012100951325008C015C
:100B50008D018E01373026008C00F0308D00FF3083
:100B60008E003F3027008C00F0308D00FF308E006B
:100B70008B1502303C0090000D30A40014303D0075
:100B80009F0008000030A3000030A2000030A10048
:100B90000030A000721CD42D7608A0077708A13D74
:100BA0007808A23D7908A33D0130F635F70DF80D20
:100BB000F90D890BD52D0130F536F40CF30CF20C40
:100BC000890BDC2D7508740473047204031DCA2D8F
:100BD0002308F5002208F4002108F3002008F200A1
:100BE00008008130220097007D3021009D00903068
:100BF0009E002200171FF92D0000000000000000D9
:100C0000000021009D149D18032E1D101B082000BC
:100C1000A40021001C082000A500A601A7010030A7
:100C2000AB000F30AA00FC30A9000030A8008231D0
:100C300020222508B4002408B3000800063400343C
:100C40000B3400340134003400341E3400343234A8
:100C50000034463400345A3400346E340034823464
:100C60000034A0340034BE340034DC340034FA34B0
:100C700000340034003432340034643400347834C6
:100C80000034823400348C340034013402302000CB
:100C9000A2002208EF009630A2002208F200F30121
:100CA00000308731E527863106302000A30013305D
:100CB000A200AD30890B5A2EA20B5A2EA30B5A2E2E
:100CC0000032F201F30100308731E5278631D03060
:100CD000F4008730F5008731802708000330F600E4
:100CE00076082000EF00F201F301FF308731E5279D
:100CF00086310230F7004530F600AA30890B7E2E8F
:100D0000F60B7E2EF70B7E2EF201F30100308731B9
:100D1000E52786310330F7008A30F6005630890B1C
:100D20008F2EF60B8F2EF70B8F2E08002000EF0171
:100D3000EF0AF201FF30A2002208F30000308731F1
:100D4000E527863106302000A3001330A200AD3025
:100D5000890BA82EA20BA82EA30BA82E0032F201FD
:100D6000F30100308731E52786312230F4008830E6
:100D7000F50087318027080069302000A200220892
:100D8000F200F301C8308731E527863103302000B7
:100D9000A3008A30A2005530890BCC2EA20BCC2E9A
:100DA000A30BCC2E0032F201F30100308731E5278E
:100DB0008631B930F4008730F5008731802708008C
:100DC00032302000A2002208F200FF30A3002308E6
:100DD000F30000308731E527863182302000A20001
:100DE000DD30890BF12EA20BF12E0032F201F3015E
:100DF00000308731E52786310E30F4008830F50069
:100E000087318027080085318F2587318F3166270C
:100E100087318F311B2787318F31472787318F31BA
:100E2000132787318F31B92787318F3117278731C2
:100E30008F316E2787318F31812787318F31A827F6
:100E40008731873124270800083023009F00903025
:100E50009D0024309E0008309B009C010030F20071
:100E60000030F3008F314D2787310030F200003021
:100E7000F3008F31292787310030F2000030F30072
:100E80008F312427D1010800E03084008F308500A5
:100E90000008F200F3017208FA007308FB00E13069
:100EA00084008F3085000008F200F3017208E4002E
:100EB0007308E500E23084008F3085000008F200FE
:100EC0007208C7000800A030F9007908F200F301A9
:100ED00082308731E52787318230F900DE30890B97
:100EE0006F2FF90B6F2FF201F30100308731E527E7
:100EF0008731FA30F4008730F50087318027080009
:100F00007630F60076082000A0007508F700740817
:100F1000F600F40A0319F50A7608840077088500BC
:100F20000008F80078082000A10021080319080033
:100F300021088F313D278731852F00308B1B0130F1
:100F4000F4008B13720823009100730892001513AC
:100F50001516151555309600AA3096009514000008
:100F6000000023001511740C031C8B1303188B173E
:100F700008000A34203472346534733465347434B0
:100F80002034763461346C347534653420347334F1
:100F900065346C34653463347434653464340034DB
:100FA0000A3420344634723465347134753465340F
:100FB0006E34633479342034733465346C3465347E
:100FC00063347434653464340034F5007308031DED
:100FD000EC2F21008E16F12FDF30F4007408210071
:100FE0008E0573092500910075082C009800720881
:100FF0009B0008000A34203464346534633472344E
:1010000065346134733465342034733465346C343E
:101010006534633474346534643400340A34203401
:1010200069346E34633472346534613473346534D6
:101030002034733465346C3465346334743465340B
:10104000643400340A3420346334753472347234B6
:1010500065346E3474342034733465346C346534E0
:0A10600063347434653464340034E2
:101E1E008B108F3176270800C2302A0091000800FF
:101E2E00C2302A00950008001630210097000800E5
:101E3E00F00070082200990008007308DF00720895
:101E4E00DE0008007308E1007208E0000800730865
:101E5E00DD007208DC0008007308DB007208DA008F
:101E6E0008007308D9007208D8000800F300730840
:101E7E008F315F270800F2007208280096000800D4
:101E8E00803022009800FF3099000800730821006E
:101E9E00E3007208E2000800640080010131890B42
:101EAE00542F0034FE0012001E00FE0B5A2F003479
:101EBE00F200111E602F720823009A0008006A308B
:101ECE00210099009A019801220096010800FF3026
:101EDE0020009B009A01911006309C000800210002
:101EEE005C085D04031908005D088A005C080A009E
:101EFE008F3108008B1021001513C730F20004300B
:101F0E00F3008F312E270B1608009210210058086F
:101F1E0059040319080059088A0058080A008F311D
:101F2E0008000B11210050082000950021005A08CE
:101F3E005B04031908005B088A005A080A008F31F7
:101F4E0008001508C03915389500200095012100AC
:101F5E00D0010B118B120330F2000030F3008F31E1
:101F6E0033270800043028009600950120009210B7
:101F7E0021009214CB30F2000F30F3008F3138274E
:101F8E00163028009700080024080319DA2FA40140
:101F9E0047080319D62F4F088F311F270800FF302F
:101FAE008F311F270800A401A40A4F088F311F2765
:101FBE000800053403340034003400340034003497
:101FCE000034003400340034003400340034003463
:101FDE000034003400340034003400340034003453
:101FEE000034003400340034003400340034003443
:021FFE000034AD
:020000040001F9
:04000E00E421FF3EAC
:00000001FF
