:020000040000FA
:1000000080313E28080001347E1480318B1E09287F
:100010000A2812280B1D0D280E2812288D31EF25D5
:1000200080313C280B1E152816281E288B1C1928E9
:100030001A281E288D31622580313C288B1D2128ED
:1000400022282A280B1C252826282A288D315525C8
:1000500080313C280B1F2D282E283C282100921C83
:10006000322833283C282000921C372838283C2886
:100070008D31E02580313C287E10090080314028F8
:10008000803103208031FA003B3084008F308500BE
:10009000A03086000030870027308D31A7258031C1
:1000A000F801F901C73084000030850017308D3128
:1000B000A1258031203084000130850041308D3110
:1000C000A12580317E1020008331882B2100EE0095
:1000D000F301F40100308E31372680318529780311
:1000E000031D73287428A9280130EA070030EB3D6E
:1000F0006B08803AEC0080306C02031D81280B30C5
:100100006A02031C842885288E280A302100EA0010
:100110000030EB008531FD25803191288E31F026AD
:10012000803121006A35A53E86008701403F2000CE
:10013000B900413FBA0087314C2780312000380890
:10014000BC003708BB008131D52180318531A12524
:10015000803102307806031DAE28AF28DD2801303B
:100160002100E8070030E93D6908803AEC00803062
:100170006C02031DBD2806306802031CC028C1287C
:10018000CA2805302100E8000030E9008531FD254E
:100190008031CD288E31F026803121006835BB3E7C
:1001A00086008701403F2000B700413FB8008431FE
:1001B000DB2480318531A12580317808031DE128B9
:1001C000E228E5288531FD25803103307806031DBE
:1001D000EA28EB28BB298531FD258031BB2978032E
:1001E000031DF328F4281D29FF30EA07FF30EB3DFB
:1001F000EB1FFB28FC280229EA01EB018531FD25D4
:10020000803105298E31CE26803121006A35A53E08
:1002100086008701403F2000B900413FBA00873186
:100220004C27803120003808BC003708BB008131E2
:10023000D52180318531A125803102307806031D1A
:10024000222923294529FF302100E807FF30E93D15
:10025000E91F2B292C293229E801E9018531FD25E7
:10026000803135298E31CE26803121006835BB3E64
:1002700086008701403F2000B700413FB80084312D
:10028000DB2480318531A12580317808031D49297F
:100290004A294D298531FD25803103307806031D1B
:1002A00052295329BB29EB288F318A278031BB295A
:1002B0008F3162278031BB29E801E9016835BB3EF7
:1002C00086008701403F2000B700413FB8008431DD
:1002D000DB2480318F3115278031BB29EA01EB0106
:1002E0006A35A53E86008701403F2000B900413FA6
:1002F000BA0087314C27803120003808BC0037080D
:10030000BB008131D52180316A2921006E08033E6E
:10031000860087010108EC00ED016D08003A031921
:100320009229BB296C08083A0319BB29183A03190A
:100330005829083A0319BB29303A0319BB29603AF6
:1003400003196E29183A03195429083A0319BB29CD
:10035000303A0319BB29E03A03195C29103A031912
:10036000BB29383A03196F28083A0319BB29183AF0
:100370000319EF28BB29F301F40100308E31372631
:10038000803106302100ED001330EC00AD30890BD8
:10039000C729EC0BC729ED0BC7290032F301F40183
:1003A00000308E3137268031080000302000AB004D
:1003B0000030AA000330A900E830A800F430BD00E6
:1003C0000130BE000030BF000030C0003908A0007E
:1003D0003A08A100890D893B8909A200A3000030D9
:1003E000A7000030A6001230A5005C30A4008731C1
:1003F0001827813120002008BD072108BE3D2208B2
:10040000BF3D2308C03D4008AF003F08AE003E0896
:10041000AD003D08AC0082317A22813120002808ED
:100420003B02C50029083C3BC6003B08A8003C082D
:10043000A900890D893B8909AA00AB000230F300AD
:100440000030F4003C08F6003B08F50085314125FA
:10045000813173082000BD007408BE000030BE1B4F
:10046000FF30BF00C0004508C1004608C200003090
:10047000C21BFF30C300C4000830C135C20DC30D1C
:10048000C40D890B3D2A4108BD074208BE3D430803
:10049000BF3D4408C03D4008AF003F08AE003E08E5
:1004A000AD003D08AC0082317A228131200029085C
:1004B000C8002808C7004808803ABD0081303D02C6
:1004C000031D642A00304702031C672A682A6D2A2C
:1004D000FF302000C7000030C8002000C81F712A6C
:1004E000722A742AC701C8014708BD003D082100CF
:1004F000D60008002000B201AB1F7F2A802A8D2A77
:10050000A809A909AA09AB09A80A0319A90A031984
:10051000AA0A0319AB0AB201B20AAF1F902A912AA4
:10052000A02AAC09AD09AE09AF09AC0A0319AD0A9E
:100530000319AE0A0319AF0A0130B0003008B20641
:100540000030B6000030B5000030B4000030B30019
:100550002B082A04290428040319AF2AB02AF12AF7
:10056000B101B10ABE2A0130A835A90DAA0DAB0D03
:10057000890BB42A0130B0003008B107AB1FC12A83
:10058000C22AB32A0130B335B40DB50DB60D890BAF
:10059000C32A2B082F02031DD72A2A082E02031D67
:1005A000D72A29082D02031DD72A28082C02031C4C
:1005B000DA2ADB2AE42A2808AC022908AD3B2A08FB
:1005C000AE3B2B08AF3B33140130AB36AA0CA90C61
:1005D000A80C890BE52A0130B102031DF02AF12A8B
:1005E000C22A32080319F52AF62A012BB309B409E5
:1005F000B509B609B30A0319B40A0319B50A0319F0
:10060000B60A3608AB003508AA003408A90033083A
:10061000A80008002000AC00250886008701403FA4
:10062000A700413FA8002708840028088500120081
:10063000253A031D1C2B1D2B642B250886008701E2
:100640000130810741310318810A2100C901CA0123
:10065000CD01CE01FF30CB00FF30CC0020002508BB
:1006600086008701403FA700413FA800270884007B
:10067000280885001200253A031D3F2B402B592BDB
:100680002508860087010130810741310318810A5E
:100690002530F5000030F6002C08A7002708F700E9
:1006A00086319C26833101302000A5000030A60051
:1006B000872B250886008701013081074131031807
:1006C000810AA501A601872B250886008701403FE6
:1006D000A700413FA80027088400280885000008DB
:1006E000A900AA012908F5002A08F6002C08AB0089
:1006F0002B08F70086319C268331200025088600D0
:1007000087010130810741310318810A532B08000A
:100710008E31AC2683318D31712583318D31562553
:1007200083318D315A2583318631582683318E317C
:100730006A26833121006A35A53E86008701403F45
:100740002000B900413FBA0087314C278331200097
:100750003808BC003708BB008131D5218331210026
:100760006835BB3E86008701403F2000B700413F0F
:10077000B8008431DB2483318B170B178631DC26DC
:10078000833187314C278331200038082200E40070
:10079000200037082200E3006408803A2100EF00BF
:1007A00089306F02031DD72BC43022006302031867
:1007B000DA2BDB2BDE2B8F31B427833121006A3516
:1007C000A53E86008701403F2000B900413FBA00A6
:1007D000220064082000BC00220063082000BB0047
:1007E0008131D5218331023021005906031DF92BB7
:1007F000FA2BC12BD8308031662083312100D901FA
:10080000C12B80313E28E03020002005A6000F30AB
:100810002105A70000308B1B0130A8002708210606
:10082000031D142C260820060319172C182C192C2C
:100830006E2C8B132108F4002008F3008E314E2615
:10084000843123001513151595162000A9012008E1
:100850002300910020002108230092002000293568
:100860002207A300230886008701010823009300C4
:10087000200029352207A300230886008701403F76
:10088000A400413FA5002508230094001F3020004C
:100890002906031D4C2C4D2C4F2C2300951255304E
:1008A00023009600AA309600951400000000013045
:1008B0002000A0070030A13D0130A3002308A907B4
:1008C00020302902031C652C662C272C23001511CF
:1008D0002000280C031C8B1303188B170800200022
:1008E0001508F0007008F20095010B1D782C792C8A
:1008F0007A2CF2010B11C52CB4307202031C812C2E
:10090000822CD92CF43072020318872C882CD92C15
:10091000D801D901D90AD92C0130DA35DB0DDC0D2B
:10092000DD0D890B8D2C1D307202031C982C992C27
:10093000A52C2A30720203189E2C9F2CA52C5A1429
:100940000130F0007008D807B42C0E307202031C7E
:10095000AA2CAB2CB22C153072020318B02CB12C7F
:10096000B22CA02CD901D92C20305806031DB92C4B
:10097000BA2CD92C5A095B06031DBF2CC02CB22CF3
:100980000230F0007008D900D92C21005908F0007D
:10099000F1017108003A0319CE2CB22C7008003A0C
:1009A00003197C2C013A03198C2C033A0319D92C16
:1009B000B22C8B10080020003708A0003808A100D6
:1009C000890D893B8909A200A3000030A7000030EF
:1009D000A6000030A5006030A400873118278431BC
:1009E00020002308AB002208AA002108A900200843
:1009F000A8000030AF000F30AE004230AD004030F4
:100A0000AC0082317A22843120002908BB002808FA
:100A1000BA003B08803AB90081303902031D122D1B
:100A200000303A02031C152D162D1B2DFF3020001F
:100A3000BA000030BB0020003B08803AB90080308B
:100A40003902031D252D44303A020318282D292D83
:100A50002E2D44302000BA000030BB008B13200044
:100A60003A088D316C258431200037083804031D85
:100A70003A2D3B2D3E2DFA01FA0A3F2DFA018B1734
:100A800008002000A101F41F462D472D4E2DF3092B
:100A9000F409F30A0319F40AA101A10AF61F512D62
:100AA000522D5B2DF509F609F50A0319F60A0130F6
:100AB000F7007708A106A201A301730874040319C3
:100AC000622D632D922DA001A00A6F2D0130F33508
:100AD000F40D890B672D0130F7007708A007F41F8C
:100AE000722D732D662D0130A235A30D890B742D47
:100AF00074087602031D7E2D73087502031C812D78
:100B0000822D872D7308F5027408F63B22140130FC
:100B1000F436F30C890B882D0130A002031D912DB2
:100B2000922D732D21080319962D972D9C2DA20926
:100B3000A309A20A0319A30A2308F4002208F30058
:100B400008002000EE01AE01AF010130AA002A0822
:100B5000EE0720306E02031CAE2DAF2DA32DEF014A
:100B6000FF3021006A052000AA00003021006B053B
:100B70002000AB0000302A04AE0034302B04AF005C
:100B80000130AA002A08EF07FF3021006805200085
:100B9000AA000030210069052000AB0000302A04C3
:100BA000AC0034302B04AD006F352E3E860087013B
:100BB0002C08C03F2D08C13F0130AA002A08EF07CA
:100BC00000307A04AA003430AB006F352E3E860028
:100BD00087012A08C03F2B08C13F0130AA002A081C
:100BE000EF07E030A0000F30A1002E30AA002A0845
:100BF000A2008431032485310800B4302000A00015
:100C00002008F300E630A1002108F40000308E3106
:100C10003726853103302000A1008A30A0005530EE
:100C2000890B102EA00B102EA10B102E0032F301F9
:100C3000F40100308E313726853103302000A100C9
:100C40008A30A0005530890B232EA00B232EA10B38
:100C5000232E0032B4302000A0002008F300E6303C
:100C6000A1002108F40000308E3137268531033091
:100C70002000A1008A30A0005530890B3D2EA00B2A
:100C80003D2EA10B3D2E0032F301F40100308E31D8
:100C90003726853103302000A1008A30A00055306E
:100CA000890B502EA00B502EA10B502E00320800A5
:100CB000FF3020009B001C08FC3902389C001C15EA
:100CC00021000E160E303D00A400CF3025009E05F9
:100CD0002C0098013F3097051916EF30F300730888
:100CE00021008E052C00991721008C160F303D0035
:100CF00095003F3025009E052C009B013F309A0552
:100D00001C16DF30F300730821008C052C009C17A3
:100D100021008E160C303D00A50025001308F03987
:100D20000C389300FF30910030309304DF30F30033
:100D3000730821008E05080077080319A02EA12E44
:100D4000A62E7708031DA52EA62EAB2E75088D3175
:100D50009B258631DB2E7708033E8600870116002F
:100D600001040319B42EB52ED32E7708033E860056
:100D70008701403F2000A000413FA100770A860084
:100D80008701403FA200413FA3002308803AA4000E
:100D90002108803A2402031DCF2E200822020318C6
:100DA000D22ED32EDB2E770A8600870101308107F1
:100DB00041310318810A0800F8012000A201A301B3
:100DC000B4302000A0002008F300E630A100210884
:100DD000F40000308E313726863182302000A000AA
:100DE000DD30890BF12EA00BF12E0032F301F4015E
:100DF00000308E313726863182302000A000DD3071
:100E0000890B002FA00B002F003201302000A20719
:100E10000030A33D2308803AA00080302002031D4B
:100E2000132F05302202031C162F172FE02E080067
:100E30000030F6000030F5000030F4000030F30020
:100E40002000201C242F252F2D2F2408F3072508F0
:100E5000F43D2608F53D2708F63D0130A435A50DE3
:100E6000A60DA70D890B2E2F0130A336A20CA10CC5
:100E7000A00C890B352F2308220421042004031D14
:100E8000422F432F202F7608A3007508A200740874
:100E9000A1007308A00008008130220097007D3077
:100EA00021009D0090309E002200171F582F592FBF
:100EB000542F0000000000000000000021009D14DD
:100EC0009D18632F642F602F1D101B082000A800A1
:100ED00021001C082000A900AA01AB010030AF00CE
:100EE0000F30AE00FC30AD000030AC0082317A2211
:100EF000873120002908B8002808B7000800220020
:100F00008C018D018E01043021008C0030308D0069
:100F100050308E00403023008E0010308D008C0148
:100F200024008D018C018E012100951325008C0178
:100F30008D018E01373026008C00F0308D00FF309F
:100F40008E003F3027008C00F0308D00FF308E0087
:100F50008B1502303C0090000D30A40014303D0091
:100F60009F0008002000B2002E08B4002D08B30036
:100F70002100C701C801D02F3330B0003008A500D0
:100F80002F08B1003108A600320883310A238731C7
:100F9000200025082100C707200026082100C83DA1
:100FA000200033088400340885001200031DD92F67
:100FB000DA2FBC2F210048082000AE00210047088E
:100FC0002000AD000800210024080319E82FE92FB4
:100FD000F92FA4017A080319EE2FEF2FF42F5608EA
:100FE0008D3167258731FF2FFF308D3167258731A0
:100FF000FF2FA401A40A56088D3167258731080008
:101000000A342034723465347334653474342034D3
:10101000763461346C34753465342034733465341B
:101020006C346534633474346534643400340A34A5
:1010300020344634723465347134753465346E341A
:10104000633479342034733465346C3465346334F8
:1010500074346534643400340A34203464346534C0
:1010600063347234653461347334653420347334DA
:1010700065346C34653463347434653464340034FA
:101080000A34203469346E34633472346534613424
:10109000733465342034733465346C3465346334AC
:1010A00074346534643400340A3420346334753461
:1010B0007234723465346E3474342034733465346D
:0E10C0006C3465346334743465346434003445
:101AAA000800C2302A0091000800C2302A009500BE
:101ABA00080016302100970008008B108D31D325BD
:101ACA008D310800F0007008220099000800F30028
:101ADA007308280096000800803022009800FF3022
:101AEA009900080074082200E2007308E100080067
:101AFA0074082100E7007308E60008007408210052
:101B0A00E5007308E400080074082100E300730884
:101B1A00E200080074082100E1007308E0000800F0
:101B2A0074082100DF007308DE000800F40074085E
:101B3A008D31BD258D310800640080010131890B8A
:101B4A00A22D0034FE0012001E00FE0BA82D003448
:101B5A006A30210099009A01980122009601080032
:101B6A00FF3020009B009A01911006309C0008006B
:101B7A00F3002000111EC22DC32DBE2D73082300B1
:101B8A009A0008008B10210015136F30F3000430FF
:101B9A00F4008D3189258D310B1608002100620869
:101BAA0063040319D92DDA2DDF2D63088A00620830
:101BBA000A008D3108002000921021005E085F049F
:101BCA000319E82DE92DEE2D5F088A005E080A0048
:101BDA008D3108000B11790820009500210060085A
:101BEA0061040319F92DFA2DFF2D61088A00600896
:101BFA000A008D31080021001508C03915389500F2
:101C0A0020009501F9010B118B120230F30000300C
:101C1A00F4008D318F258E31080037302000B7004F
:101C2A003708BA003608AE003508AD003A30B700BA
:101C3A003708AF0000308731B2278E3108000430F0
:101C4A002800960095012000921021009214E3309A
:101C5A00F3000730F4008D3195258E3116302800B7
:101C6A0097000800F6007408031D3C2E3D2E402EF6
:101C7A0021008E16452EDF30F500750821008E05ED
:101C8A0074092500910076082C00980073089B00BF
:101C9A00080000308B1B0130F5008B1373082300FA
:101CAA0091007408920015131516151555309600F3
:101CBA00AA30960095140000000023001511750C37
:101CCA00031C8B1303188B170800E03084008F3035
:101CDA0085000008F300F40173082100EA00740883
:101CEA00EB00E13084008F3085000008F300F40136
:101CFA007308E8007408E900E23084008F30850038
:101D0A000008F3007308FA000800083023009F0057
:101D1A0090309D0024309E0008309B009C010030CA
:101D2A00F3000030F4008D317D258E310030F30050
:101D3A000030F4008D3183258E310030F3000030FD
:101D4A00F4008D3177258E312100D70108008731C3
:101D5A007F278E318D31AD258E318D315E258E31C5
:101D6A008D3171258E318D3156258E318E31242655
:101D7A008E318D315A258E318D31B5258E318D3189
:101D8A00C7258E318E3100268E318E318A268E31CC
:101D9A000800A0302000BB003B08F300F4018230A9
:101DAA008E3137268E3182302000BB00DD30890B20
:101DBA00DC2EBB0BDC2E0032F301F40100308E3135
:101DCA0037268E312C302000B5008830B6008E318F
:101DDA0012268E31080032302000BB003B08F30087
:101DEA00FF30BC003C08F40000308E3137268E31BB
:101DFA0082302000BB00DD30890B012FBB0B012F85
:101E0A000032F301F40100308E3137268E31403032
:101E1A002000B5008830B6008E3112268E310800B7
:101E2A0069302000BB003B08F300F401C8308E3152
:101E3A0037268F3103302000BC008A30BB00553072
:101E4A00890B252FBB0B252FBC0B252F0032F30145
:101E5A00F40100308E3137268F3100302000B50072
:101E6A008830B6008E3112268F31080006340034CD
:101E7A000B3400340134003400341E34003432345C
:101E8A000034463400345A3400346E340034823418
:101E9A000034A0340034BE340034DC340034FA3464
:101EAA00003400340034323400346434003478347A
:101EBA000034823400348C340034F801F80AF30117
:101ECA00FF302000BB003B08F40000308E3137267B
:101EDA008F3106302000BC001330BB00AD30890BB7
:101EEA00742FBB0B742FBC0B742F0032F301F40157
:101EFA0000308E3137268F3154302000B5008830BB
:101F0A00B6008E3112268F31080002302000BB0045
:101F1A003B08F8009630BB003B08F300F4010030A0
:101F2A008E3137268F3106302000BC001330BB00BB
:101F3A00AD30890B9E2FBB0B9E2FBC0B9E2F003200
:101F4A00F301F40100308E3137268F31173020002B
:101F5A00B5008830B6008E3112268F310800033062
:101F6A002000A0002008F800F301F401FF308E31B0
:101F7A0037268F3102302000A1004530A000A93059
:101F8A00890BC52FA00BC52FA10BC52F0032F3015A
:101F9A00F40100308E3137268F3103302000A10042
:101FAA008A30A0005530890BD82FA00BD82FA10B4F
:101FBA00D82F0032080005340334003400340034CA
:101FCA000034003400340034003400340034003467
:101FDA000034003400340034003400340034003457
:101FEA000034003400340034003400340034003447
:061FFA0000340034003445
:020000040001F9
:04000E00E421FF3EAC
:00000001FF
