:020000040000FA
:04000000803114280F
:100008007E1480310B1A8B1C0D288731D227803142
:1000180012288B190B1C12288731D6277E1009004D
:1000280080311628F001F101F201F301F401F50124
:10003800F6012000E601E701E801E901A0308400AB
:10004800003085002130873199277E1020008231C9
:100058005C2A43302000C7004708D000200042082F
:10006800C8004108C700C10A0319C20A470884002A
:10007800480885000008C9004908D800580803192D
:1000880008002530580603194E2858088731BD271F
:10009800803132282000D501D601D70158285715BC
:1000A8000130C1070030C23D410884004208850084
:1000B8000008303A0319532861284108840042088F
:1000C80085000008873145278031031CA1282000BE
:1000D800D501D6010A302000A0000030A100560842
:1000E800A3005508A2008631772680312000210818
:1000F800D6002008D5004108840042088500000881
:10010800D03EC700FF3003180030C8004708D507A5
:100118004808D63D0130C1070030C23D410884007F
:10012800420885000008873145278031031CA12833
:100138006E285716A128D717BF2820004208C800E4
:100148004108C700C10A0319C20A470884004808C1
:1001580085000008D800003A03195B2A643A03199D
:10016800BF280D3A0319BF28053A03199D28143AE8
:1001780003199F283228D71BF628571ED028500865
:1001880086008701403FD100413FD200423FD30063
:10019800433FD4000430E128500886008701403FDF
:1001A800C700413FC8004708D1004808D200890D60
:1001B800893B8909D300D4000230C7004708D0071B
:1001C800D41F77290330C7004708D704D109D209BB
:1001D800D309D409D10A0319D20A0319D30A031976
:1001E800D40A7729571E0529500886008701403F01
:1001F800D100413FD200423FD300433FD4000430F6
:100208001329500886008701403FC700413FC800B6
:100218004708D1004808D200D301D4010230C700F2
:100228004708D0077729D801D80A0A305806031991
:1002380080295808C700C801C735C80DC735C80D7B
:10024800ED30470784008530483D8500003FC900F0
:10025800013FCA00023FCB00033FCC004C085402C8
:10026800031D40294B085302031D40294A08520226
:10027800031D402949085102031C80290130C70089
:100288004708D8071929D801D80A08305806031989
:1002980080295808C700C801C735C80DC735C80D1B
:1002A8003930470784008630483D8500003FC90043
:1002B800013FCA00023FCB00033FCC004C08540268
:1002C800031D70294B085302031D70294A08520266
:1002D800031D702949085102031C80290130C700F9
:1002E8004708D807492957088039003A03191729B8
:1002F800803A0319472980295508560403198C297F
:100308005708033903198C29FF30D507FF30D63D2C
:100318005608803A803C031D932955085802031853
:100328009E2920005808C700C8014708D502480878
:10033800D63BA1292000D501D601571DBA29570857
:1003480003390319AB292D308731BD2780312000AF
:10035800550856040319D32930308731BD27803119
:10036800FF302000D507FF30D63DAC29550856048C
:100378000319CB2920308731BD278031FF30200079
:10038800D507FF30D63D55085604031DBE2957082A
:1003980003390319D3292D308731BD278031200037
:1003A8005808C700C8014708CE004808CF00472AA8
:1003B8000030BC000030BB000030BA000A30B90081
:1003C8004F0885004E0884008435850D8435850DD9
:1003D800ED3084078530853D003FAC00013FAD001E
:1003E800023FAE00033FAF005408B3005308B20009
:1003F8005208B1005108B0008431C924803120006E
:100408002F08C0002E08BF002D08BE002C08BD0014
:1004180085311C25803120003908303E402A4F089C
:1004280085004E0884008435850D8435850D393066
:1004380084078630853D003FAC00013FAD00023F98
:10044800AE00033FAF005408B3005308B20052088F
:10045800B1005108B0008431C924803120002C0833
:100468000F39C7004708CD004D08343E8400873057
:100478000318013E85000008C7004708D80058083F
:100488008731BD278031FF302000CE07FF30CF3DB8
:100498004E0A03194F0A0319322857088039003ABF
:1004A8000319DC29803A0319132A432A432A08002E
:1004B8008631592682318731B72782318731CE2755
:1004C80082318731CA2782312C302000B9000130AF
:1004D800BA00B830BB000B30BC00833183238231B3
:1004E8008B170B1722008C168E160E168531BF251A
:1004F800823120002F08803ADC0089305C02031D1D
:10050800872AC4302E0203189B2A22008E12C2307A
:100518002000C1008730C2008531BF25823120000C
:100528002F08C4002E08C30080312D2082310230EC
:100538007206031D762A1A302000C1008730C200D7
:100548000230713E86008701403FC300413FC4002E
:10055800423FC500433FC60080312D208231933091
:100568002000C1008630C2007408DC00DD015C0890
:10057800C3005D08C40080312D208231C9302000BD
:10058800C1008630C2007308DC00DD015C08C300CE
:100598005D08C40080312D208231AE302000C100BA
:1005A8008630C2007608DC00DD015C08C3005D0807
:1005B800C40080312D208231E4302000C100863013
:1005C800C2007508DC00DD015C08C3005D08C400DA
:1005D80080312D208231FF302000C1008630C200DA
:1005E8007608C4007508C30080312D20823171302F
:1005F8008331FD238231F201762A2000A901A31F4D
:10060800122BA009A109A209A309A00A0319A10A8A
:100618000319A20A0319A30AA901A90AA71F232BD0
:10062800A409A509A609A709A40A0319A50A031973
:10063800A60A0319A70A0130F9007908A9060030AB
:10064800AD000030AC000030AB000030AA00230839
:1006580022042104200403196C2BA801A80AA31B57
:10066800412B0130A035A10DA20DA30D890B362B0E
:100678000130F9007908A807332B0130AA35AB0DF2
:10068800AC0DAD0D890B422B23082702031D562BF9
:1006980022082602031D562B21082502031D562B6E
:1006A80020082402031C612B2008A4022108A53B72
:1006B8002208A63B2308A73B2A140130A336A20C24
:1006C800A10CA00C890B622B0130A802031D412B41
:1006D800290803197A2BAA09AB09AC09AD09AA0A9A
:1006E8000319AB0A0319AC0A0319AD0A2D08A300B4
:1006F8002C08A2002B08A1002A08A000080000303E
:100708002000AF000030AE000330AD00E830AC0090
:10071800F430BD000130BE000030BF000030C00022
:100728003908A0003A08A100A201A3010030A700DF
:100738000030A6001230A5005C30A40085315F258A
:10074800833120002008BD072108BE3D2208BF3D97
:100758002308C03D4008B3003F08B2003E08B1007E
:100768003D08B0008431C924833120002C09C10020
:100778002D09C200C10A0319C20A3B084107FA0041
:100788003C08423DFB003B08A0003C08A100A20138
:10079800A3013C08BE003B08BD00BE36BD0C3D08A9
:1007A800BF003E08C000C101C2017A08C3007B082F
:1007B800C400C501C6010830C335C40DC50DC60D3A
:1007C800890BE02B4308BF074408C03D4508C13DDD
:1007D8004608C23D4208A7004108A6004008A500F7
:1007E8003F08A4008331012320002008220099003B
:1007F80008002000DB00282C0A30D9005908E80737
:10080800562C0A30E802562C0A30D9005908E70756
:10081800562C0A30E702562C0A30D9005908E60748
:10082800562C0A30E602562CC230C1008730C2006E
:100838008531BF25833120002F08C4002E08C3004E
:1008480080312D208331562C20005B08033E860022
:1008580087010108083A0319102C183A03190D2CBE
:10086800083A0319562C303A0319562C603A0319E2
:10087800182C183A0319082C083A0319562C303A40
:100888000319562CE03A0319152C103A0319562C63
:10089800383A0319002C083A0319562C183A031948
:1008A800052C562C20006708D9005908A0006608B6
:1008B800DA005A08A1006808873153270800200089
:1008C8001508F7007708F80095010B19F8010B11C6
:1008D800BC2CB4307802031CC72CF43078020318FF
:1008E800C72CF101F201F20A7808F7007708210015
:1008F800A000C72C0130F335F40DF50DF60D890B6A
:100908007F2C1D307802031C982C2A30780203189B
:10091800982C7808F7007108013EA03E86008701F0
:10092800770881007314A92C0E307802031CBA2CA6
:10093800153078020318BA2C7808F7007108013EC0
:10094800A03E86008701770881000130F70077080C
:10095800F10720307106031DC72C73097406031DA7
:10096800BA2C0230F7007708F200C72CF201C72C26
:100978007208003A03196D2C013A03197E2C033AC8
:100988000319C72CBA2C8B10080000302000B700C0
:100998000030B6000030B5000030B4002F082E0437
:1009A8002D042C040319132DB801B80AAF1BE82C29
:1009B8000130AC35AD0DAE0DAF0D890BDD2C01301E
:1009C800F9007908B807DA2C0130B435B50DB60D41
:1009D800B70D890BE92C2F083302031DFD2C2E08B7
:1009E8003202031DFD2C2D083102031DFD2C2C089D
:1009F8003002031C082D2C08B0022D08B13B2E082C
:100A0800B23B2F08B33B34140130AF36AE0CAD0CFB
:100A1800AC0C890B092D0130B802031DE82C3708EE
:100A2800AF003608AE003508AD003408AC00080049
:100A380020003C083B043A0439040319562DFB01F5
:100A4800FB0ABC1B332D0130B935BA0DBB0DBC0DEB
:100A5800890B282D0130FA007A08FB07252D3C0860
:100A68004002031D412D3B083F02031D412D3A085A
:100A78003E02031D412D39083D02031C4B2D390848
:100A8800BD023A08BE3B3B08BF3B3C08C03B0130B7
:100A9800BC36BB0CBA0CB90C890B4C2D0130FB02CF
:100AA800031D332D4008BC003F08BB003E08BA00B8
:100AB8003D08B900080000302000AB000030AA0053
:100AC8000030A9000030A800201C722D2408A807B7
:100AD8002508A93D2608AA3D2708AB3D0130A435C5
:100AE800A50DA60DA70D890B732D0130A336A20CF9
:100AF800A10CA00C890B7A2D2308220421042004C0
:100B0800031D682D2B08A3002A08A2002908A100AC
:100B18002808A000080022008C018D018E010430F5
:100B280021008C0020308D008E0123008E018D0164
:100B38008C0124008D018C018E0121009513250064
:100B48008C018D018E01373026008C00F0308D002D
:100B5800FF308E003F3027008C00F0308D00FF30D2
:100B68008E008B1502303C0090000D30A40014302C
:100B78003D009F0008008130220097007D30210051
:100B88009D0090309E002200171FC72D0000000016
:100B980000000000000021009D149D18D12D1D109B
:100BA8001B082000A00021001C082000A100A201B1
:100BB800A3010030A7000F30A600FC30A5000030CC
:100BC800A4008331012320002108AF002008AE00D3
:100BD800080001340034003400340A34003400348E
:100BE80000346434003400340034E834033400340E
:100BF80000341034273400340034A03486340134EF
:100C08000034403442340F340034803496349834FD
:100C180000340034E134F53405340034CA349A34ED
:100C28003B34083023009F0090309D0024309E0004
:100C380008309B009C0100302000A0000030A1007B
:100C48008731AB27863100302000A0000030A1009A
:100C58008731A527863100302000A0000030A10090
:100C68008731B1272000E90108000134003400343D
:100C780000341034003400340034003401340034BB
:100C880000340034103400340034003400340134AB
:100C9800003400340034103400340034003400349C
:100CA8000134003400340034103485318F25863106
:100CB8008731912786318731C62786318731B72713
:100CC80086318731CE2786318731CA2786318731E9
:100CD80089278631873160278631873177278631A2
:100CE800863115260800F901FA012000201C802E03
:100CF8002208F9072308FA3D0130A235A30D890B14
:100D0800812E0130A136A00C890B862E20082104E3
:100D1800031D792E7A08A1007908A0000800633421
:100D28006F346D346D3461346E3464343A34203445
:100D3800203420342034203420342034203420340B
:100D480020343034783425343034323478340D3427
:100D58000A3400346134643464347234653473346E
:100D680073343A342034203420342034203420346E
:100D7800203420342034203430347834253430344E
:100D8800323478340D340A34003463346F346D34BB
:100D98006D3461346E3464345F3462343A342034F0
:100DA800203420342034203420342034203430348B
:100DB800783425343034323478340D340A340034FD
:100DC80061346434643472346534733473345F3436
:100DD80062343A342034203420342034203420340F
:100DE8002034203430347834253430343234783474
:100DF8000D340A34003465347834743465346E3410
:100E08006434653464342034613464346434723452
:100E18006534733473343A342034303478342534B8
:100E28003034343478340D340A3400340D340A3410
:100E380063346F34643465343A34203420342034D5
:100E48002034203420342034203420343034783492
:100E58002534303438346C3478340D340A34003462
:100E6800303431343234333434343534363437343E
:100E78003834393461346234633464346534663404
:100E88000034FA00F9013A307A020318512F303051
:100E98007A02031C512FF901F90A790C0800F900AC
:100EA800790825009100200020082C0098002000D7
:100EB80021082C009B0008008B10210015136330BB
:100EC8002000A0000430A10087319F270B160800DE
:100ED80020005E085F04031908005F088A005E08A6
:100EE8000A008731080021001508C0391538950017
:100EF80020009501F0010B110800F9002000111ED7
:100F0800822F790823009A0008007F3020009B0078
:100F18009A01911004309C0008006A302100990061
:100F28009A019801220096010800640080010131AD
:100F3800890B9A2F003420002108DF002008DE00EA
:100F4800080020002108E3002008E2000800200033
:100F58002108E5002008E400080020002108E1003D
:100F68002008E0000800803022009800FF30990037
:100F78000800FA007A08873181270800253464348C
:100F88000A3400341630210097000800D2302A00B5
:100F980095000800D2302A00910008008B10873194
:060FA8006C2708000800A0
:020000040001F9
:04000E00E421FF3EAC
:00000001FF
