:020000040000FA
:04000000803114280F
:100008007E1480310B1A8B1C0D2887311C278031F8
:1000180012288B190B1C1228873120277E10090003
:1000280080311628F001F101F201F301F401F50124
:10003800F6012000DA01DB01DC01DD01A0308400DB
:100048000030850021308631E3267E102000823181
:100058005C2A37302000BB003B08C400200036086B
:10006800BC003508BB00B50A0319B60A3B08840072
:100078003C0885000008BD003D08CC004C08031969
:10008800080025304C0603194E284C0887310727ED
:10009800803132282000C901CA01CB0158284B15EC
:1000A8000130B5070030B63D3508840036088500B4
:1000B8000008303A031953286128350884003608A7
:1000C8008500000886318F268031031CA128200076
:1000D800C901CA010A302000A0000030A1004A0866
:1000E800A3004908A2008531C125803120002108DC
:1000F800CA002008C90035088400360885000008B1
:10010800D03EBB00FF3003180030BC003B08C907D5
:100118003C08CA3D0130B5070030B63D35088400BB
:1001280036088500000886318F268031031CA128F7
:100138006E284B16A128CB17BF2820003608BC0014
:100148003508BB00B50A0319B60A3B0884003C0809
:1001580085000008CC00003A03195B2A643A0319A9
:10016800BF280D3A0319BF28053A03199D28143AE8
:1001780003199F283228CB1BF6284B1ED028440889
:1001880086008701403FC500413FC600423FC70087
:10019800433FC8000430E128440886008701403FF7
:1001A800BB00413FBC003B08C5003C08C600890DA8
:1001B800893B8909C700C8000230BB003B08C40757
:1001C800C81F77290330BB003B08CB04C509C60903
:1001D800C709C809C50A0319C60A0319C70A0319B2
:1001E800C80A77294B1E0529440886008701403F25
:1001F800C500413FC600423FC700433FC800043026
:100208001329440886008701403FBB00413FBC00DA
:100218003B08C5003C08C600C701C8010230BB0046
:100228003B08C4077729CC01CC0A0A304C060319CD
:1002380080294C08BB00BC01BB35BC0DBB35BC0DCF
:1002480037303B07840085303C3D8500003FBD00CA
:10025800013FBE00023FBF00033FC0004008480204
:10026800031D40293F084702031D40293E08460256
:10027800031D40293D084502031C80290130BB00AD
:100288003B08CC071929CC01CC0A08304C060319C5
:1002980080294C08BB00BC01BB35BC0DBB35BC0D6F
:1002A80083303B07840085303C3D8500003FBD001E
:1002B800013FBE00023FBF00033FC00040084802A4
:1002C800031D70293F084702031D70293E08460296
:1002D800031D70293D084502031C80290130BB001D
:1002E8003B08CC0749294B088039003A03191729DC
:1002F800803A03194729802949084A0403198C2997
:100308004B08033903198C29FF30C907FF30CA3D50
:100318004A08803A803C031D932949084C02031877
:100328009E2920004C08BB00BC013B08C9023C08C0
:10033800CA3BA1292000C901CA014B1DBA294B0893
:1003480003390319AB292D30873107278031200065
:1003580049084A040319D3293030873107278031E7
:10036800FF302000C907FF30CA3DAC2949084A04BC
:100378000319CB292030873107278031FF3020002F
:10038800C907FF30CA3D49084A04031DBE294B0866
:1003980003390319D3292D308731072780312000ED
:1003A8004C08BB00BC013B08C2003C08C300472AFC
:1003B8000030B0000030AF000030AE000A30AD00B1
:1003C80043088500420884008435850D8435850DF1
:1003D800373084078530853D003FA000013FA100EC
:1003E800023FA200033FA3004808A7004708A60051
:1003F8004608A5004508A400843143248031200024
:100408002308B4002208B3002108B2002008B10074
:1004180084319624803120002D08303E402A43083C
:100428008500420884008435850D8435850D833028
:1004380084078530853D003FA000013FA100023FB1
:10044800A200033FA3004808A7004708A6004608E3
:10045800A5004508A40084314324803120002008E9
:100468000F39BB003B08C10041087E3E840086303E
:100478000318013E85000008BB003B08CC004C086F
:10048800873107278031FF302000C207FF30C33D86
:10049800420A0319430A031932284B088039003AE3
:1004A8000319DC29803A0319132A432A432A08002E
:1004B8008531A32582318731012782318731182779
:1004C80082318731142782318B170B1722008C1643
:1004D8008E160E1685310925823120002F08803AA4
:1004E800D00089305002031D7B2AC4302E02031825
:1004F8008F2A22008E120C302000B5008730B600FB
:1005080085310925823120002F08B8002E08B70050
:1005180080312D20823102307206031D6A2A643030
:100528002000B5008630B6000230713E8600870193
:10053800403FB700413FB800423FB900433FBA00CF
:1005480080312D208231DD302000B5008530B600A5
:100558007408D000D1015008B7005108B8008031A4
:100568002D20823113302000B5008630B600730884
:10057800D000D1015008B7005108B80080312D20B3
:100588008231F8302000B5008530B6007608D000FA
:10059800D1015008B7005108B80080312D208231B0
:1005A8002E302000B5008630B6007508D000D10185
:1005B8005008B7005108B80080312D2082314930E9
:1005C8002000B5008630B6007608B8007508B70078
:1005D80080312D2082317130833177238231F201CD
:1005E8006A2A2000A901A31F062BA009A109A209B4
:1005F800A309A00A0319A10A0319A20A0319A30A45
:10060800A901A90AA71F172BA409A509A609A709C3
:10061800A40A0319A50A0319A60A0319A70A01308F
:10062800F9007908A9060030AD000030AC000030B0
:10063800AB000030AA002308220421042004031977
:10064800602BA801A80AA31B352B0130A035A10DEA
:10065800A20DA30D890B2A2B0130F9007908A807F0
:10066800272B0130AA35AB0DAC0DAD0D890B362B00
:1006780023082702031D4A2B22082602031D4A2BA2
:1006880021082502031D4A2B20082402031C552B90
:100698002008A4022108A53B2208A63B2308A73B63
:1006A8002A140130A336A20CA10CA00C890B562BDE
:1006B8000130A802031D352B290803196E2BAA093E
:1006C800AB09AC09AD09AA0A0319AB0A0319AC0AAC
:1006D8000319AD0A2D08A3002C08A2002B08A100BD
:1006E8002A08A00008002000CF00A22B0A30CD0065
:1006F8004D08DC07D02B0A30DC02D02B0A30CD00A5
:100708004D08DB07D02B0A30DB02D02B0A30CD0096
:100718004D08DA07D02B0A30DA02D02B0C30B5009E
:100728008730B60085310925833120002F08B800AD
:100738002E08B70080312D208331D02B20004F08A0
:10074800033E860087010108083A03198A2B183AE4
:100758000319872B083A0319D02B303A0319D02BE9
:10076800603A0319922B183A0319822B083A031995
:10077800D02B303A0319D02BE03A03198F2B103ABB
:100788000319D02B383A03197A2B083A0319D02BBE
:10079800183A03197F2BD02B20005B08CD004D0899
:1007A800A0005A08CE004E08A1005C0886319D269C
:1007B800080020001508F7007708F80095010B19C4
:1007C800F8010B11362CB4307802031C412CF4309C
:1007D80078020318412CF101F201F20A7808F700B7
:1007E80077082100A000412C0130F335F40DF50DF8
:1007F800F60D890BF92B1D307802031C122C2A30B8
:1008080078020318122C7808F7007108013EA03E00
:1008180086008701770881007314232C0E30780234
:10082800031C342C153078020318342C7808F70090
:100838007108013EA03E86008701770881000130DB
:10084800F7007708F10720307106031D412C730962
:100858007406031D342C0230F7007708F200412C8F
:10086800F201412C7208003A0319E72B013A0319E7
:10087800F82B033A0319412C342C8B100800003054
:100888002000AB000030AA000030A9000030A8000A
:10089800230822042104200403198D2CAC01AC0A7E
:1008A800A31B622C0130A035A10DA20DA30D890B4D
:1008B800572C0130F9007908AC07542C0130A835C1
:1008C800A90DAA0DAB0D890B632C23082702031D64
:1008D800772C22082602031D772C21082502031DE8
:1008E800772C20082402031C822C2008A40221084B
:1008F800A53B2208A63B2308A73B28140130A336B2
:10090800A20CA10CA00C890B832C0130AC02031D96
:10091800622C2B08A3002A08A2002908A100280895
:10092800A0000800200030082F042E042D0403190D
:10093800D02CFB01FB0AB01BAD2C0130AD35AE0D40
:10094800AF0DB00D890BA22C0130FA007A08FB0715
:100958009F2C30083402031DBB2C2F083302031DC3
:10096800BB2C2E083202031DBB2C2D083102031CA0
:10097800C52C2D08B1022E08B23B2F08B33B300816
:10098800B43B0130B036AF0CAE0CAD0C890BC62CA5
:100998000130FB02031DAD2C3408B0003308AF0052
:1009A8003208AE003108AD00080022008C018D012C
:1009B8008E01043021008C0020308D008E01230030
:1009C8008E018D018C0124008D018C018E01210086
:1009D800951325008C018D018E01373026008C007F
:1009E800F0308D00FF308E003F3027008C00F03053
:1009F8008D00FF308E008B1502303C0090000D30CA
:100A0800A40014303D009F000800813022009700A8
:100A18007D3021009D0090309E002200171F112D6F
:100A28000000000000000000000021009D149D1837
:100A38001B2D1D101B082000A00021001C082000F1
:100A4800A100A201A3010030A7000F30A600FC30CE
:100A5800A5000030A4008231F52220002108AF0053
:100A68002008AE00080001340034003400340A3491
:100A78000034003400346434003400340034E83482
:100A88000334003400341034273400340034A034E4
:100A9800863401340034403442340F340034803416
:100AA8009634983400340034E134F5340534003495
:100AB800CA349A343B34083023009F0090309D009C
:100AC80024309E0008309B009C0100302000A000CC
:100AD8000030A1008631F526853100302000A000C5
:100AE8000030A1008631EF26853100302000A000BB
:100AF8000030A1008631FB262000DD01080001340A
:100B0800003400340034103400340034003400342D
:100B1800013400340034003410340034003400341C
:100B2800003401340034003400341034003400340C
:100B3800003400340134003400340034103484317B
:100B4800D92485318631DB268531873110278531D7
:100B58008731012785318731182785318731142757
:100B680085318631D32685318631AA26853186316D
:100B7800C126853185315F250800F901FA01200079
:100B8800201CCA2D2208F9072308FA3D0130A23596
:100B9800A30D890BCB2D0130A136A00C890BD02DCC
:100BA80020082104031DC32D7A08A1007908A0009C
:100BB800080063346F346D346D3461346E346434DA
:100BC8003A34203420342034203420342034203463
:100BD80020342034203430347834253430343234DE
:100BE80078340D340A340034613464346434723433
:100BF8006534733473343A34203420342034203448
:100C080020342034203420342034203430347834D4
:100C180025343034323478340D340A3400346334B3
:100C28006F346D346D3461346E3464345F346234DF
:100C38003A342034203420342034203420342034F2
:100C480020343034783425343034323478340D3428
:100C58000A3400346134643464347234653473346F
:100C680073345F3462343A342034203420342034EE
:100C7800203420342034203430347834253430344F
:100C8800323478340D340A340034653478347434AA
:100C980065346E34643465346434203461346434C7
:100CA800643472346534733473343A3420343034F1
:100CB800783425343034343478340D340A340034FC
:100CC8000D340A3463346F34643465343A34203470
:100CD800203420342034203420342034203420346C
:100CE800303478342534303438346C3478340D3436
:100CF8000A34003430343134323433343434353413
:100D080036343734383439346134623463346434D3
:100D1800653466340034FA00F9013A307A0203186F
:100D28009B2E30307A02031C9B2EF901F90A790CAC
:100D38000800F900790825009100200020082C00FF
:100D48009800200021082C009B0008008B1021002F
:100D58001513DD302000A0000330A1008631E926FC
:100D68000B16080020005208530403190800530802
:100D78008A0052080A008631080021001508C03987
:100D88001538950020009501F0010B110800F900B5
:100D98002000111ECC2E790823009A0008007F300D
:100DA80020009B009A01911004309C0008006A30D2
:100DB800210099009A019801220096010800640018
:100DC80080010131890BE42E003420002108D30072
:100DD8002008D200080020002108D7002008D600EB
:100DE800080020002108D9002008D80008002000A9
:100DF8002108D5002008D40008008030220098007F
:100E0800FF3099000800FA007A088631CB260800DE
:100E1800253464340A340034163021009700080061
:100E2800D2302A0095000800D2302A00910008002C
:0A0E38008B108631B6260800080072
:020000040001F9
:04000E00E421FF3EAC
:00000001FF
