:020000040000FA
:04000000803114280F
:100008007E1480318B1A0B1D0D2886313C268031D9
:1000180012280B1A8B1C12288631C1267E10090063
:100028008031162852308400003085000A3086312D
:1000380082268031A030840000308500213086314E
:1000480082267E1020008231572A2C302000B000F2
:100058003008B90020002B08B1002A08B000AA0A0D
:100068000319AB0A30088400310885000008B20083
:100078003208C10041080319080025304106031958
:100088004A2841088631AC2680312E28BE01BF019E
:10009800C001532840150130AA070030AB3D2A089B
:1000A80084002B0885000008303A03194E285C2884
:1000B8002A0884002B088500000886312E26803106
:1000C800031C9C282000BE01BF010A30F00000304C
:1000D800F10020003F08F3003E08F2008531D325E7
:1000E800803171082000BF007008BE002A08840013
:1000F8002B0885000008D03EB000FF300318003000
:10010800B1003008BE073108BF3D0130AA070030F2
:10011800AB3D2A0884002B088500000886312E266E
:100128008031031C9C28692840169C28C017BA28CF
:1001380020002B08B1002A08B000AA0A0319AB0A4C
:1001480030088400310885000008C100003A03190E
:10015800562A643A0319BA280D3A0319BA28053AF7
:1001680003199828143A03199A282E28C01BF12835
:10017800401ECB28390886008701403FBA00413F1E
:10018800BB00423FBC00433FBD000430DC283908B7
:1001980086008701403FB000413FB1003008BA00F7
:1001A8003108BB00890D893B8909BC00BD000230BC
:1001B800B0003008B907BD1F72290330B0003008FD
:1001C800C004BA09BB09BC09BD09BA0A0319BB0AAC
:1001D8000319BC0A0319BD0A7229401E00293908EF
:1001E80086008701403FBA00413FBB00423FBC0048
:1001F800433FBD0004300E29390886008701403F7F
:10020800B000413FB1003008BA003108BB00BC0162
:10021800BD010230B0003008B9077229C101C10A16
:100228004108B000B101B035B10DB035B10DC530E0
:10023800300784008430313D8500003FB200013F23
:10024800B300023FB400033FB50035083D02031D6B
:10025800372934083C02031D372933083B02031DA4
:10026800372932083A02031C7B290130B0003008D4
:10027800C1070A30410603197B291429C101C10AA3
:100288004108B000B101B035B10DB035B10D0E3037
:10029800300784008530313D8500003FB200013FC2
:1002A800B300023FB400033FB50035083D02031D0B
:1002B800672934083C02031D672933083B02031DE4
:1002C800672932083A02031C7B290130B000300844
:1002D800C1070830410603197B29442940088039A1
:1002E800003A03191229803A031942297B293E084A
:1002F8003F04031987294008033903198729FF3068
:10030800BE07FF30BF3D3F08803A803C031D8E2961
:100318003E0841020318992920004108B000B101A4
:100328003008BE023108BF3B9C292000BE01BF0136
:10033800401DB529400803390319A6292D308631F7
:10034800AC26803120003E083F040319CE29303006
:100358008631AC268031FF302000BE07FF30BF3D1C
:10036800A7293E083F040319C62920308631AC2648
:100378008031FF302000BE07FF30BF3D3E083F04FC
:10038800031DB929400803390319CE292D308631B8
:10039800AC26803120004108B000B1013008B70018
:1003A8003108B800422A0030A3000030A200003013
:1003B800A1000A30A0003808850037088400843579
:1003C800850D8435850DC53084078430853D003F13
:1003D800F000013FF100023FF200033FF3003D0847
:1003E800F7003C08F6003B08F5003A08F4008331B2
:1003F800D623803173082000A7007208A600710870
:10040800A5007008A4008431282480312000200829
:10041800303E3B2A38088500370884008435850D2E
:100428008435850D0E3084078530853D003FF0000A
:10043800013FF100023FF200033FF3003D08F700DF
:100448003C08F6003B08F5003A08F4008331D6234F
:10045800803170080F392000B0003008B600360827
:100468001D3E840086300318013E85000008B00058
:100478003008C10041088631AC268031FF302000A9
:10048800B707FF30B83D370A0319380A03192E2871
:1004980040088039003A0319D729803A03190E2AEF
:1004A8003E2A3E2A080085312E2582318631A6262D
:1004B80082318631BD2682318631B92682312200C9
:1004C8008C168E160E1684319A2482312000270845
:1004D800803AC50089304502031D742AC4302602BB
:1004E8000318882A22008E12B1302000AA00863014
:1004F800AB0084319A24823120002708AD002608F9
:10050800AC00803129208231023020005706031DBB
:10051800632AEE30AA008530AB000230563E8600D2
:100528008701403FAC00413FAD00423FAE00433F32
:10053800AF008031292082314C302000AA0085305C
:10054800AB005908C500C6014508AC004608AD0017
:1005580080312920823182302000AA008530AB000A
:100568005808C500C6014508AC004608AD008031F2
:100578002920823167302000AA008530AB005B0853
:10058800C500C6014508AC004608AD0080312920E9
:1005980082319D302000AA008530AB005A08C50082
:1005A800C6014508AC004608AD00803129208231DB
:1005B800B8302000AA008530AB005B08AD005A08AF
:1005C800AC00803129208231563083317123823149
:1005D8002000D701632A2000A101F31F002BF00996
:1005E800F109F209F309F00A0319F10A0319F20AE9
:1005F8000319F30AA101A10AF71F112BF409F50940
:10060800F609F709F40A0319F50A0319F60A031992
:10061800F70A0130F8007808A1060030A50000307C
:10062800A4000030A3000030A20073087204710413
:10063800700403195A2BA001A00AF31B2F2B0130B9
:10064800F035F10DF20DF30D890B242B0130F80074
:100658007808A007212B0130A235A30DA40DA50D04
:10066800890B302B73087702031D442B720876021E
:10067800031D442B71087502031D442B7008740276
:10068800031C4F2B7008F4027108F53B7208F63B07
:100698007308F73B22140130F336F20CF10CF00C1E
:1006A800890B502B0130A002031D2F2B21080319A1
:1006B800682BA209A309A409A509A20A0319A30A78
:1006C8000319A40A0319A50A2508F3002408F2004F
:1006D8002308F1002208F00008002000C4009C2B29
:1006E8000A30C2004208D407C92B0A30D402C92BE9
:1006F8000A30C2004208D307C92B0A30D302C92BDB
:100708000A30C2004208D207C92B0A30D202C92BCC
:10071800B130AA008630AB0084319A24833120009E
:100728002708AD002608AC00803129208331C92B69
:100738004408033E860087010108083A0319842B00
:10074800183A0319812B083A0319C92B303A0319AF
:10075800C92B603A03198C2B183A03197C2B083AD9
:100768000319C92B303A0319C92BE03A0319892B0D
:10077800103A0319C92B383A0319742B083A03198C
:10078800C92B183A0319792BC92B20005308C2002A
:100798004208F0005208C3004308F10054088631AB
:1007A800602608000030FC000030FB000030FA0032
:1007B8000030F900730872047104700403191F2CC7
:1007C800FD01FD0AF31BF42B0130F035F10DF20D9C
:1007D800F30D890BE92B0130F8007808FD07E62BAB
:1007E8000130F935FA0DFB0DFC0D890BF52B73085B
:1007F8007702031D092C72087602031D092C710863
:100808007502031D092C70087402031C142C70084F
:10081800F4027108F53B7208F63B7308F73B79144C
:100828000130F336F20CF10CF00C890B152C013069
:10083800FD02031DF42B7C08F3007B08F2007A0804
:10084800F1007908F00008002000230822042104A0
:1008580020040319622CA901A90AA31B3F2C01300B
:10086800A035A10DA20DA30D890B342C0130A800D1
:100878002808A907312C23082702031D4D2C22081C
:100888002602031D4D2C21082502031D4D2C20088E
:100898002402031C572C2008A4022108A53B220887
:1008A800A63B2308A73B0130A336A20CA10CA00C41
:1008B800890B582C0130A902031D3F2C2708A300DF
:1008C8002608A2002508A1002408A000080022008C
:1008D8008C018D018E01043021008C0020308D00A8
:1008E8008E0123008E018D018C0124008D018C0165
:1008F8008E012100951325008C018D018E01373062
:1009080026008C00F0308D00FF308E003F3027002D
:100918008C00F0308D00FF308E0002303C009000DB
:100928000D30A40014303D009F00080081302200E3
:1009380097007D3021009D0090309E002200171FF7
:10094800A22C0000000000000000000021009D14FF
:100958009D18AC2C1D101B08F0001C08F100F201BA
:10096800F3010030F7000F30F600FC30F5000030DE
:10097800F4008231EF2271082000A7007008A60059
:10098800080001340034003400340A3400340034E0
:1009980000346434003400340034E8340334003460
:1009A80000341034273400340034A0348634013441
:1009B8000034403442340F34003480349634983450
:1009C80000340034E134F53405340034CA349A3440
:1009D8003B34083023009F0090309D0024309E0057
:1009E80008309B009C010030F0000030F100863197
:1009F8009A2684310030F0000030F10086319426C8
:100A080084310030F0000030F1008631A02620004B
:100A1800D5010800013400340034003410340034A7
:100A2800003400340034013400340034003410340D
:100A3800003400340034003401340034003400340D
:100A480010340034003400340034013400340034ED
:100A58000034103484316B24853186317A2685310F
:100A68008631B52685318631A62685318631BD2663
:100A780085318631B92685318631722685318631B0
:100A88004A2685318631082685318431ED240800CF
:100A980063346F346D346D3461346E3464343A3495
:100AA800203420342034203420342034203420349E
:100AB80020342034303478342534303432347834A7
:100AC8000D340A3400346134643464347234653467
:100AD800733473343A3420342034203420342034AE
:100AE80020342034203420342034303478342534F1
:100AF8003034323478340D340A34003463346F348B
:100B08006D346D3461346E3464345F3462343A3435
:100B1800203420342034203420342034203420342D
:100B28003034783425343034323478340D340A345F
:100B38000034613464346434723465347334733427
:100B48005F3462343A342034203420342034203462
:100B5800203420342034303478342534303432345E
:100B680078340D340A340034653478347434653498
:100B78006E346434653464342034613464346434E9
:100B880072346534733473343A34203430347834FE
:100B980025343034343478340D340A340034F401D4
:100BA800F501701CDB2D7208F4077308F53D013060
:100BB800F235F30D890BDC2D0130F136F00C890B81
:100BC800E12D70087104031DD52D7508F100740816
:100BD800F00008000D340A3463346F34643465342B
:100BE8003A34203420342034203420342034203443
:100BF80020342034303478342534303438346C346C
:100C080078340D340A34003421001508C0391538F9
:100C18009500D83020009500D830F2007208D10035
:100C28000B118B16C530F0000630F100863188268E
:100C380008003034313432343334343435343634D3
:100C48003734383439346134623463346434653465
:100C580066340034F100F0013A30710203183A2E7C
:100C680030307102031C3A2EF001F00A700C0800B3
:100C78000B11200051089500470848040319080083
:100C880048088A0047080A00863108008B102100AE
:100C98001513C630F0000630F10086318E260B168B
:100CA8000800200049084A04031908004A088A0075
:100CB80049080A0086310800F200720825009100F0
:100CC80070082C00980071089B000800F0002000B4
:100CD800111E6B2E700823009A0008007F30200038
:100CE8009B009A01911004309C0008006A30210092
:100CF80099009A0198012200960108006400800179
:100D08000131890B832E003471082000C800700857
:100D1800C700080071082000CA007008C900080050
:100D280071082000CE007008CD000800710820006E
:100D3800D0007008CF00080071082000CC007008AF
:100D4800CB000800803022009800FF30990008008E
:100D5800F100710886316A260800253464340A34A3
:100D680000341630210097000800D2302A00950080
:100D78000800D2302A00910008008B1086315526D1
:060D88000800080008004D
:020000040001F9
:04000E00E421FF3EAC
:00000001FF
